:020000040800F2
:10400000483C0020D5400008DD400008DF400008A3
:1040100000000000000000000000000000000000A0
:10402000000000000000000000000000E140000867
:104030000000000000000000E34000085DB100083F
:10404000E7400008E740000801A40008E740000836
:10405000E7400008E7400008E740000885560008F0
:1040600000000000E7400008E7400008E7400008C3
:10407000E7400008E7400008E7400008E740000884
:10408000E7400008E7400008E740000800000000A3
:10409000E7400008E7400008E7400008E740000864
:1040A000E7400008E7400008E74000081DBE0008A0
:1040B00049BE0008E74000080000000000000000C2
:1040C0000348854600F0E0F800480047FDCB0008B3
:1040D000483C00200448804704480047FEE7FEE7CC
:1040E000FEE7FEE7FEE7FEE775B20008C140000804
:1040F00030B50B46014600202022012409E00D4680
:10410000D5409D4205D31D469540491B2546954007
:1041100040191546521E002DF1DC30BDF0B51FB41C
:104120000646002082B005464024019100901BE025
:10413000019922460F46304600F095F8049A059BF7
:10414000801A994110D310461946224600F07BF898
:10415000361A8F410197224601200021009F00F06E
:1041600072F838184D4100902046641E0028DFDCAC
:10417000019B00982946324607B0F0BD03460B4329
:104180009B0703D009E008C9121F08C0042AFAD20D
:1041900003E00B780370401C491C521EF9D2704793
:1041A000D2B201E00270401C491EFBD270470022CF
:1041B000F6E710B513460A4604461946FFF7F0FF26
:1041C000204610BD30B505462A460B4610781C78AF
:1041D000521C5B1C002801D0A042F7D0002C03D059
:1041E000002802D06D1CEFE7284630BD10B504460C
:1041F00005E00B780370401C002B00D0491C521EB8
:10420000F7D2204610BD421C0178401C0029FBD18A
:10421000801A704730B505460020034600E05B1C5D
:10422000934205D2EC5CC85C201A01D1002CF6D177
:1042300030BD0321001D401E037812021A43491E9F
:10424000F9D51046704710B5202A04DB0146203A04
:104250009140002010BD914020239C1A0346E3406A
:104260001943904010BD10B5202A04DB0846203ABF
:10427000D040002110BD0B46D340D0402024A21ACC
:1042800091400843194610BD064C0125064E05E035
:10429000E36807CC2B430C3C98471034B442F7D367
:1042A000FFF712FF6CCD00088CCD000870B50446F6
:1042B00000688168490720D58168102649070029D0
:1042C00005DA8168890702D481683143816002F090
:1042D000C1F905460DE002F0BDF9401B0A2808D9D6
:1042E000A06D3043A065E06D01210843E0650846FC
:1042F00070BD206880684007EDD4002070BD0000CC
:1043000038B50446064805490068FFF7F1FE6043EA
:1043100000E0401E00900028FBD138BD40420F0055
:1043200014000020F8B50446006881688907890FE9
:10433000012925D10168C90722D0816805221140D1
:104340001025012601290FD18168022211438160C5
:1043500021680320086002F07DF907460CE002F0B6
:1043600079F9C01B0A2807D9A06D2843A065E06D24
:104370003043E0650120F8BD20688068C007EED1B9
:104380000020F8BDF8B50446006881688907890FE8
:10439000012902D10168C90722D18168114A10267A
:1043A0001140012500290ED1816829438160012037
:1043B000FFF7A6FF02F04EF907460CE002F04AF9BB
:1043C000C01B0A2807D9A06D3043A065E06D2843C3
:1043D000E0650120F8BD20680068C043C007EDD14A
:1043E0000020F8BD17000080F8B50D4D00242E46C2
:1043F000FF361736A0004119FF3104223046033141
:10440000FFF708FFC7B2394606A008F023F9002FCE
:1044100001D00020F8BD641C062CEBDB0120F8BDA8
:104420008C05002041626E6F726D616C5374617413
:104430007573202578200D0A0000000070B500F08B
:104440007DF8214C2078C00704D0204802F03AF9CA
:1044500007F078F82078400704D51C4802F032F9BC
:1044600001F0B4FB207800070CD50021012007F0F3
:104470003FFD17480021018016480A22817720302D
:10448000428001802078C0061DD5FF24124D0134E2
:104490002146284601F07CFB3C2001F05FFF2146CD
:1044A000284602F0CBF801460CA008F0D3F82146CC
:1044B000284602F0C3F8002801D105F0FBFF214691
:1044C000284601F02BFB70BD04000020E80000200E
:1044D0001A000020AC060020000800505357382076
:1044E0002578200A00000000F8B50D460646002495
:1044F000114F0AE005F07CFD384601F02FFF05F072
:10450000A5FDC82001F02AFF641CB442F2DBFF269F
:104510002D36304601F022FF00240AE005F068FD48
:10452000304601F01BFF05F091FDC82001F016FF99
:10453000641CAC42F2DBF8BD4C04000010B5104C1A
:10454000208A00281BD0E189002918D00D48026874
:10455000022A04DB022202600BA008F07BF8E0894B
:10456000401E0004000CE08109D10120207360731B
:1045700003480021C03801678B2000F001FD10BD09
:10458000CC060020100000204255542025640A006B
:1045900010B5029C016002828461436110BD00007D
:1045A00030B5054685B000200C460190029003907E
:1045B000049000F067F8002C01D00CA300E00CA3DD
:1045C0000CA20EA101A808F055F801A8FFF71BFEE8
:1045D0000CA1024600910DA301A92846FFF7D8FFC0
:1045E000284600F053F905B030BD0000313100001D
:1045F0003130000041542B50494F00002573257382
:10460000000000002B455252000000002B4F4B00D1
:104610001CB5044600F036F8204600F0ADF86421E1
:10462000684600F051FA019900982162E06108A003
:10463000009009A309220BA12046FFF7A9FF2046FD
:1046400000F024F9022802D109A008F003F81CBDEB
:104650002B455252000000002B534C4545503A4F19
:104660004B00000041542B534C4545503200000094
:10467000424C455F434D445F54494D454F55540DA1
:104680000A00000030B5164887B0C16A01242143F2
:10469000C162C06A009420400590112005252D07B5
:1046A0000190029469460394284601F005FF002218
:1046B0000121284601F0C7FF322001F04FFE012200
:1046C0001146284601F0BFFF032001900020029010
:1046D000009469460394284601F0EEFE07B030BD11
:1046E0000010024030B5124887B0C16A012421434E
:1046F000C162C06A05252040059002202D07009068
:104700000194029469460394284601F0D5FE0122E3
:104710000221284601F097FF0320019000940294A3
:1047200069460394284601F0C7FE07B030BD00007B
:104730000010024038B504460021FFF731FF06A003
:10474000009007A3092209A12046FFF721FF204678
:1047500000F09CF838BD00002B45525200000000CC
:104760002B534C4545503A4F4B00000041542B53BE
:104770004C454550320000000649016080314160DF
:1047800080218160C160002101824182024AC262AF
:10479000084670478C0400208D480008FEB504468A
:1047A0001020205EA168884242D80021012007F035
:1047B000B9FB344D01212888490308432880802112
:1047C0003148FFF7F4FC6069002802D0E069002856
:1047D00005D1A06900282BD0E069002828D06421E9
:1047E000684600F071F9274600982437019926465B
:1047F00003C71C36083F0AE02888010402D5C0041C
:10480000C00C2880304600F068F9002804D13846F2
:1048100000F063F90028EFD0304600F05EF9002781
:1048200000280AD0304600F058F9002800D06782EE
:104830000021084607F076FBFEBD28880028F7D047
:104840006169002914D01048FFF7BCFC00280FD084
:1048500060680028E6D02A88E1689142E8D30A49D6
:10486000FFF7C4FC29886068475428886082D9E72C
:10487000A1690029DCD00448FFF7A4FC0028E7D197
:10488000D6E700001C00002074020020FEB504469C
:104890001020205EA168002588427ED800210120DA
:1048A00007F040FB464E0121308849030843308021
:1048B00080214448FFF77BFC228A434B4348216810
:1048C00003F0EEFD002805D000210125084607F081
:1048D00029FB6FE06069002802D0E069002805D15B
:1048E000A069002866D0E069002863D0642101A88F
:1048F00000F0EAF802990198A162606220461C303B
:104900002746243700900AE03088010402D5C0040D
:10491000C00C3080009800F0E0F8002804D1384640
:1049200000F0DBF80028EFD0009800F0D6F8002760
:10493000002806D0009800F0D0F800283AD067820E
:1049400037E03088002834D06169002916D01D482E
:10495000FFF738FC002811D0606800280BD032889F
:10496000E168914219D31749FFF740FC318860682C
:104970004754308860820025DCE70EE0A1690029F9
:1049800017D01048FFF71EFC002812D060680028DE
:104990000DD03288E168914201D201250AE009492F
:1049A000FFF724FC31886068475430886082012515
:1049B000C0E702250021084607F0B4FA2846FEBDEC
:1049C0001C00002074020020FF0700006403002088
:1049D00010B58EB00446FFF755FE342101A8FFF74D
:1049E000E6FB2046FFF7DAFE114B12A214A101A844
:1049F00007F040FE14A0009015A30A220DA1204646
:104A0000FFF7C6FD2046FFF741FF002008A9887385
:104A100001A8FFF7F8FB0CA1024600910EA301A923
:104A20002046FFF7B5FD2046FFF730FF0EB010BD62
:104A3000EE05002041542B53545255554944000073
:104A400025732573000000002B4552520000000022
:104A50002B555549440000002B4F4B0010B5044620
:104A600005F088FA06F0D4FC1648417E002900D0F3
:104A7000847E230007F012FE0A06080F1115131793
:104A80001A1F220C01211AE000210DE0FFF72CFD76
:104A900005F08EFA10BD052111E0032104E001218B
:104AA00002E0022100E004210120EFE701210020C3
:104AB000FFF71AFDFAE703210846E7E70321002084
:104AC000E4E700008C05002070B50D460446016047
:104AD00001F0C0FD4019606070BD10B5044601F0E2
:104AE000B9FD06CC521A824202D2831A8B4202D2FC
:104AF000801A884201D3012010BD002010BD0000A3
:104B0000F3B581B00C4600F0B7FF00F0CDFD217881
:104B100068460170617841700688019801274C4D04
:104B20004C4C022804D001282ED0002857D080E019
:104B300049480178401C890008F00CF8B04207D1C0
:104B4000A87B002802D00020A8730AE00120FBE720
:104B50003F4864300178401C890007F0FBFFB042F9
:104B600001D1277101E0002020713B480021017034
:104B70004B210901401CFFF71AFB2079002858D06F
:104B8000A87B05F0F5FC54E034480178401C89000E
:104B900007F0E0FFB04207D1E87B002802D00020F8
:104BA000E87309E00120FBE72D480178401C8900EB
:104BB00007F0D0FFB04201D1277101E00020207141
:104BC0002648002101704B210901401CFFF7EFFA34
:104BD000207900282DD0E87B05F0AAFC29E02148A7
:104BE0000178401C890007F0B5FFB04207D1287C4E
:104BF000002802D00020287409E00120FBE71A48B1
:104C00000178401C890007F0A5FFB04201D127714F
:104C100001E0002020711348002101704B2109019F
:104C2000401CFFF7C4FA2079002802D0287C05F048
:104C3000EFFB21790DA007F00DFD00F0F9FE2079C2
:104C4000002801D007F036FA7E2000F099F9FEBD69
:104C500020070020CC06002097150020481A0020CD
:104C6000350C0020F91E0020E61000204368616E1C
:104C7000676541646472657373466C61673A257851
:104C8000200D0A00F0B5104B9D4400F0F5FE00F039
:104C90000BFD012636036F4631463846FFF787FA8B
:104CA00000242503294609A007F0D4FC29463246F2
:104CB000384605F069FF641C072CF2DB00F0B8FEF3
:104CC000014B5B429D44F0BDFCEFFFFF692025785E
:104CD000200D0A00F8B500F0CFFE00F0E5FC104C06
:104CE000002526462046FF3662304136FF340B4F02
:104CF000013400900BE020210098FFF758FA68017A
:104D0000C119A1642022009805F03EFF6D1C707B44
:104D1000A842F0DC00F08CFEF8BD0000106000003E
:104D20008C05002008B569460A2000F0A1FF6846FE
:104D30000078400603D080210A2006F0ADF808BDB7
:104D4000FEB5002604468578667126712674467481
:104D50003146012006F0A0F8FFF7E4FF20210B20E8
:104D600006F09AF80021032006F096F88021022030
:104D700006F092F87F21042006F08EF880212A2088
:104D800006F08AF821780C2901D0042902D10120EB
:104D900006F082F8207880270E280DD12846A168D9
:104DA00006F048F86178002539430D2006F074F8C4
:104DB0002178012006F070F801A9042000F058FFC6
:104DC00068460079C10705D00121042006F064F887
:104DD000F3248FE0810719D56946062000F048FFCB
:104DE00068460078607400070AD569460E2000F016
:104DF0003FFF68460078C006C00E2074F52479E0B5
:104E0000F4240221042006F047F873E040071AD585
:104E1000002D14D0A168202D08D9202006F00AF812
:104E2000A0682030203DEDB2A06003E0284606F0E7
:104E300001F8002561780D20394306F02DF8042192
:104E4000084606F029F86846007900070ED5012EBD
:104E500008D12179E0684118202005F043FF20792E
:104E6000203020710821042006F016F868460179E8
:104E7000C80602D520780E2813D0880604D52078DD
:104E80000C2810D008280ED0480695D540210420C3
:104E900006F002F8207804282BD00C288CD10126AB
:104EA0008AE7102122E069460C2000F0E1FE684606
:104EB000007869464007400F60710A2000F0D8FE74
:104EC0006846007821794506E0686D0E411828464D
:104ED00005F008FF20794019C1B22171E0788842BD
:104EE00003D0002801D0F42404E02021042005F0A0
:104EF000D3FF0024002280210D2004F045FF002173
:104F0000012005F0C9FF2046FEBD000070B5154C1C
:104F10008021204600F03CFE8021204601F08EFBDF
:104F2000002815D1104C11A0617E07F093FB607E24
:104F30000025401CC0B26076032802D904F0C8FFE7
:104F40000EE000F043FEA17E607E814201D0A0769B
:104F500070BDE07E401CC0B2E0760328F8D9A5768B
:104F6000657670BD00080050EC060020537769702C
:104F70004E756D626572202578200D0A00000000D4
:104F8000F0B5FF4A89B00027FE4C603821468231D7
:104F900004915E310591A231079121460D310291B4
:104FA0007D3103912839069121310191A8310E46B6
:104FB0000D46153655350091030007F06FFB2E2383
:104FC00045444C754495444482722F9BA2ABB0FD7E
:104FD000F6B7BACB4418F3D5F2F1F0EFEE89EDEC69
:104FE000444444EBEAE9E844E7E6E5E4E34404202A
:104FF0001060E5A007F02EFB01218420049A07F041
:10500000C9FAB9E100F01EFB0598417DDFA007F069
:1050100021FBDC4A0121F53260203FE0E2A007F0ED
:1050200019FBD748001D05F03BF90D20A870EF7063
:10503000FF202871687104216B20079A07F0AAFAF3
:10504000B77501207075DBE2DBA007F003FB0121DF
:105050006120049A22E04B20C00006F0C5FFC94938
:10506000627CC0B212315054E18AD94D0818000454
:10507000410CE182AA79D7A007F0ECFA607C022803
:1050800001D9677401E0401C6074E08AA979884204
:1050900007D20520607601216220049A07F07AFA8F
:1050A000AEE204F0DDFEABE2D0A007F0D3FA0121BE
:1050B0006420049A07F06EFA05F0CAF906F010FCB5
:1050C0009EE2D1A007F0C6FA01216920049AE5E723
:1050D0007E21D2A007F0BEFAD64A01217E2007F039
:1050E00059FAFF2030718BE2D3A007F0B3FA06F033
:1050F000C1F985E2D5A007F0ADFA01202077207232
:1051000017E0D8A007F0A6FA02202077277205F052
:105110005FFF75E2D7A007F09DFA012003E0DAA057
:1051200007F098FA002003F051FE69E2207B002886
:1051300003D06E20FFF724FF62E20120FFF78EFC10
:1051400000F060FDD34A0C216E2007F023FA06F030
:10515000F7FF55E2D0A007F07DFA27720320FFF792
:105160007DFC00F04FFDF2E7D0A007F073FAFF22BC
:1051700004210298FFF714F800F044FD0C21C54A01
:1051800078208BE746E239E22CE224E2E8E081E095
:10519000CAE0C1E0B1E0AAE096E065E05DE052E07F
:1051A00037E01DE064E000E006E0C6A007F052FA38
:1051B00004217120029A71E7C9A007F04BFA009808
:1051C00000F08EFD072200990198FEF7D7FF042218
:1051D00002990398FEF7D2FF0B217020019A5DE738
:1051E000C4A007F037FA0220E0722773009800F09D
:1051F00077FD072200990198FEF7C0FF61486149D9
:105200008030CA7A4271097B817109217920019A23
:1052100044E7BCA007F01EFA0220E07201202073D0
:10522000009800F05DFD072200990198FEF7A6FFA7
:10523000544854498030CA7A4271097B81710921EE
:105240007A20019A2AE7B4A007F004FAB648FFF7DB
:10525000BFFB01217B20049A20E7B348FFF76AFADD
:1052600001217C20049A19E720217D20069A15E768
:10527000574DAEA0697B07F0EDF9687B002802D09E
:105280000220607600E0677606F014FF00221146E7
:10529000772003E7AEA007F0DDF908206076D02084
:1052A000A870EF70FF202871687104218720079A89
:1052B00007F070F90598C079002804D001215D48F5
:1052C000C943843841859BE1A6A007F0C3F9009843
:1052D00000F006FD2B4902208031887207220099D8
:1052E0000198FEF74BFF08217F20019AD6E6A0A087
:1052F00007F0B0F900F0EEFB82E104201060A1A0FD
:1053000007F0A8F907F016F9FF20F53001F026F8AC
:1053100001218420049AC1E69BA007F09BF9194A59
:1053200001210A328520B9E69CA007F093F9FFF726
:105330005BF8002811D0009800F0D2FC07220099F9
:105340000198FEF71BFF042202990398FEF716FF4F
:105350000B218620019A07F01DF90598C7774FE1C8
:1053600093A007F077F900F0EFFA01218920049A61
:1053700007F010F907F0DEF87D20C00026E10000FC
:10538000280000208C050020524D0A0044657669F3
:1053900063655F53656C665F436865636B696E67E1
:1053A000202578200A0D00005365745F5254435F36
:1053B0004576656E740A0D0041626E6F726D616CA8
:1053C0005F4C6F636B5F416C61726D0A0D00000092
:1053D00020070020566F6C746167654176657261C5
:1053E00067652025642025640A0D00005061726104
:1053F0006D657465725F436F6E666967757261741F
:10540000696F6E0A0D0000004973737565645F442F
:105410006F6F725F436172640A0D00004D43555F08
:105420004368616E676541646472657373202578B3
:105430000A0D0000D006002051756572795F4C6F2F
:10544000636B5F5265636F72640A0D004F6E6C6927
:105450006E655F556E4C6F636B5F4576656E740D60
:105460000A00000053776970655F4576656E747356
:105470000D0A0000436172645F556E4C6F636B6987
:105480006E670D0A000000004C6F636B696E670D5C
:105490000A00000014070020426C61636B6C6973A2
:1054A000744576656E740D0A000000004D43555F2B
:1054B0004F70656E5F446F6F725F4576656E740AFC
:1054C0000D00000053746F72616765204E6F20639A
:1054D000617264206E756D6265720A0D00000000D5
:1054E0006E6F742065786973742063617264200A3A
:1054F0000D0000004261636B5F4C6F636B696E6708
:10550000200A0D004261636B5F556E6C6F636B69BF
:105510006E67200A0D0000004D43555F424C455F09
:105520004F70656E200A0D00540000204D43555FFA
:1055300045717569706D656E745F6C6F636B5F6FDD
:10554000725F756E6C6F636B2025780D0A0000002A
:105550004D43555F4E6574776F726B53746174651C
:105560000D0A00004D43555F4B65790D0A000000A0
:105570004D43555F46726F6E745F4C6F636B696E1F
:10558000670D0A00525A0A004D43555F446F6F720F
:105590005F4576656E740D0A000000004D43555F4F
:1055A00041626E6F726D616C53776970650D0A00B0
:1055B0004D43555F466163746F72795265736574CC
:1055C0005F4576656E740D0A0000000000F0C6FEAF
:1055D00001F0E8F814E011A007F03CF801218A205E
:1055E000049A5BE511A007F035F8707B411C7173DC
:1055F00004F0DEFF1248FFF7EBF935E603F05EF842
:1056000007210098FEF7D3FD64210198FEF7CFFD36
:1056100009B0F0BD012028708BE500004D43555FB7
:10562000555549444C6973740D0A00004D43555F4C
:10563000436C6F636B696E675F496E0D0A00000013
:105640005400002010B50D4C0120607500F014FAD4
:1056500000F02AF805F042FA0949884202D0607D3C
:10566000401C607504F034FC882802D0607D401C2A
:10567000607500F0DDF9607D10BD00006C06002053
:10568000151F000010B5102000F00AFF802000F068
:1056900007FFFF20013000F003FF10BD0148007834
:1056A0007047000039000020F8B5194D00241A4851
:1056B0002C7018490160846044610461C460046214
:1056C000446220218462C1610721C1620121490233
:1056D0008161FF210531416002F010F8002803D0FC
:1056E00039210EA006F0B4FF0026124F05F0F6F99E
:1056F000B84208D0012028700FA006F0ABFF761C3E
:10570000032EF3DB00E02C7000F092F9F8BD0000EE
:105710003900002000300140AC2300202E2E5C41D7
:1057200070706C69636174696F6E5C466C617368FC
:105730002E63000013EF0000464C4153485F455272
:10574000524F520D0A000000F0B50027294C0225E7
:10575000032687B0002828D001224021264800F0E7
:1057600072FF012000F0FAFDE06A2843E062E06A7F
:1057700001952840059007204003204D0090694680
:1057800004970396284600F097FE0120A414019088
:10579000694603960094284600F08EFE01222146B9
:1057A000284600F050FF07B0F0BD012000F0D6FD04
:1057B00000224021104800F046FFE06A2843E062E2
:1057C000E06A28400590A06B012189030843A0638B
:1057D000072040036A46C1C2084C6946204600F0D3
:1057E0006BFE012000036A46C1C26946204600F0F4
:1057F00063FED8E70010024000080050000400508B
:1058000010B5012100220903074800F01CFF002009
:10581000FFF79AFF012000F0A1FD0120FFF794FFA0
:10582000012000F09BFD10BD0004005010B50021C8
:10583000122005F031FB0021132005F02DFB26215D
:10584000242005F029FBF821272005F025FB1F2146
:10585000282005F021FB10210C2005F01DFB402124
:10586000262005F019FB8421182005F015FB0122E4
:105870004021152004F088FA10BD10B5082100223F
:10588000084604F081FA8321122005F005FB8321EC
:10589000132005F001FB0021152005F0FDFA26215B
:1058A000242005F0F9FA5521182005F0F5FAF82121
:1058B000272005F0F1FA3F21282005F0EDFA2021FC
:1058C000292005F0E9FA10210C2005F0E5FA48211D
:1058D000262005F0E1FA10BD10B504460020207026
:1058E000FFF7A4FF04F06AFF002805D104F0F4FEDE
:1058F0002078012108432070FFF7BFFF05F00AF868
:10590000002807D104F08AFF04F0CEFF207802219E
:10591000084320702078002800D0012010BD08B571
:105920000F21012005F0B8FA012000F017FD6946AB
:10593000012000F09DF968460078202801D0002061
:1059400008BD012008BD000070B5FFF79BF9294D87
:105950000026AE73EE732E747D20A8712E72052082
:10596000E8716E72AE72EE72012123482E73C90384
:1059700001626E7321A006F06DFEA97925A006F0E4
:1059800069FE06F097FB00F077F8FFF78DFE254CD7
:105990002670A87B06F006FC23480670E87B06F01C
:1059A000AFFB22480670287C06F064FB4B210901FE
:1059B000601CFEF7FCFB1D2060704220A070E02000
:1059C000E0708B202071C2216171C321A171E4219B
:1059D000E1712072A1206072EB20A072AF20E07212
:1059E0000420207303202070002006F0DBFB00F071
:1059F0001FF870BD200700208C0500207265636FC2
:105A000072645F61646472657373202578200D0A87
:105A100000000000566F6C74616765202578200DCA
:105A20000A00000097150020481A0020F91E0020E7
:105A300070B5104886B0C16A01221143C162C16AC3
:105A400011400591416B821411434163E02003240E
:105A500000256A4631C2052636076946304600F001
:105A60002BFD10206A4631C26946304600F024FD05
:105A700006B070BD0010024070B5154886B0C16A0E
:105A800001242143C162C16A21400591416B821406
:105A900011434163E0200090022001900020052680
:105AA000032502903607049069460395304600F0BE
:105AB00003FD10200090694603950194304600F0E4
:105AC000FBFC01221021304600F0BDFD06B070BD88
:105AD0000010024010B5094C09A0217F06F0BAFD64
:105AE000207F002803D0002003F070F910BD0620AD
:105AF000FEF7B4FF6120FFF743FA10BD8C050020CC
:105B00004F7065726174696F6E616C5F6576656E0A
:105B10007473202578200D0A0000000000B50A48A3
:105B200087B0C36A04221343C362C06A0091104065
:105B3000059006480190012002906946044800F053
:105B4000BBFC07B000BD00000010024000002110A7
:105B50000008005010B50D4A0B4BD46A86B098422D
:105B600001D1042300E002231C43D462D26A1A400C
:105B7000059200910321019100210291694600F0F4
:105B80009BFC06B010BD0000000800500010024051
:105B900010B50D4A0B4BD46A86B0984201D104234C
:105BA00000E002231C43D462D26A1A40059200919D
:105BB00000210191029101210391694600F07CFCD2
:105BC00006B010BD000800500010024010B504F0EF
:105BD0004BFB04F01BFB002003F086FE074803F09C
:105BE00053FD03F091FD012003F07EFE0448C07ECA
:105BF000002802D06D20FFF7C3F910BD3638002011
:105C00008C05002010B586B000226946154801F0C9
:105C1000CDFB002205A9134801F0A6FB6846124CF3
:105C20000078207168464078607168468078A0717D
:105C30006846407DA0706846807DE0706846C17D02
:105C40007D2000010818010A21706070204604229E
:105C500006490830FEF792FA04480D38007AE071E0
:105C600006B010BDF80000201407002099050020A0
:105C7000F8B50C4640008021084310490125087002
:105C8000002048700E4E02462D032946304600F093
:105C9000DAFC7D20094AC000921C00900223911E6C
:105CA000084801F067FF01222946304600F0CBFC8E
:105CB0000248801C40782070F8BD00003B000020A6
:105CC000000400501C01002010B50C468030C1B209
:105CD0000F2005F0E1F821460F20FFF7C9FF10BDA6
:105CE00010B586B0044600226946104801F05EFBFC
:105CF000002205A90D4801F037FB6946C97D7D20CA
:105D000000010918090A21706946C97D08186070E8
:105D10006946487DA070887DE070087820714878D9
:105D200060718878A07106B010BD0000F8000020F6
:105D3000F8B5054604464035287D0026012808D0E0
:105D400001202875206881688907890F01290ED1F3
:105D500001E00220F8BD0168C90708D0A06D20212C
:105D60000843A0650126002028753046F8BDA16DC6
:105D7000FF220132914302221143A165C1688907C4
:105D8000890F0091C16889088900C1602068816815
:105D900092071143816000F05DFC07460EE000F0C1
:105DA00059FCC01B0A2809D9A06D02218843102183
:105DB0000843A065002028750120F8BD2068806890
:105DC0000028ECDB2068C168009A1143C160A06D17
:105DD00080088000401CA065C5E70000F8B50646B5
:105DE0000D464036317D01290DD001213175016804
:105DF0008A68520709D5816D2022114381650020F0
:105E000030750120F8BD0220F8BD174B6A68D8052F
:105E100047109A42154C8A6A2B6812D05B035B0BC1
:105E20001A438A622968490305D5A1680143A16024
:105E30000A20FEF765FA2868800312D5A068384367
:105E40000EE05B035B0B9A438A622968490302D523
:105E5000A1688143A1602868800302D5A068B84387
:105E6000A06000203075F8BD01100000002701403F
:105E700070B5040043D0A06D02210843A065204600
:105E8000FEF714FA0026054600283AD0012D32D03C
:105E9000206841681F4A114041602168D043086072
:105EA0002068816801221207914381602068C168DF
:105EB000194A1140C16020680169184A1140016106
:105EC00020684169C908C90041612068016A144A13
:105ED0001140016220688030416BC909C9014163EA
:105EE00020688030416BC909C9014163204600F038
:105EF000FFF8E665A66540342675284670BD01208A
:105F000070BD2046FEF70EFA05460128F3D00120A9
:105F1000A065BDE760F7FFFF00023E8302FCFF3F84
:105F200000F000F00068006C7047000070B50400DD
:105F300006D0A06D264600254036002802D006E097
:105F4000012070BDE5653575204600F0E7F8A06DCD
:105F5000C00603D421688868400705D5A06D1021CC
:105F60000843A0653575EBE7A06DFF220132904331
:105F700002221043A06588688207920F5A48012ABE
:105F800002D10A68D2072BD1032362689B079A4289
:105F900005D05B429A4202D05B009A4209D10A695D
:105FA000920092080A6121680A6963681A430A61CB
:105FB0000CE00A69920092080A6181680F2292043B
:105FC0009143816081686268114381602168CA6879
:105FD00018239A43CA602168CA68A3681A43CA6032
:105FE000816801225206914381608168228F5206A6
:105FF0001143816020688168C90004D4816801224E
:106000001207114381602068C168384A1140C1609D
:106010002169E068022923D000210843216A226B0C
:106020004903520011430843616B0843A169890386
:106030000843E169C90308432168CA681043C8607E
:10604000A06A0146FF39C23905D0E16A08432168D8
:10605000CA681043C860606A0121012802D00BE0C1
:106060000421DAE7206A002823D0A06D2022104303
:10607000A065E06D0843E065206C012820681FD012
:106080000169C90703D00169490849000161206815
:106090004169C908C900416120684169E26B114347
:1060A0004161E565A06D80088000401CA06500206E
:1060B00070BD2068C26801231B041A43C260DBE77D
:1060C0000269FF239B009A43026120680269636CA6
:1060D000E66C1A43A36C33431A43026120680269D9
:1060E0000A430261D3E70000002701401902FEFFC6
:1060F00010B500680649884208D10648416B421530
:10610000914341630121044800F036F910BD0000BD
:1061100000240140001002400004005000B5006857
:106120000A4985B088420ED10948416B4215114396
:1061300041630120009003200190002002906946F5
:10614000044800F0B9F905B000BD0000002401408A
:106150000010024000040050F8B50446406925468E
:1061600040350E4608280BD02068C068C00709D00B
:10617000A06D20210843A065002028750120F8BDEE
:10618000082700E00C2700F065FA009011E0701C71
:106190000FD0002E05D000F05DFA0099401AB042F1
:1061A00007D9A06D04210843A065002028750320AD
:1061B000F8BD206800683842E9D0A06D012149028D
:1061C0000843A0652068C16809058A0F0C21002AD0
:1061D0001AD1226A002A17D10268120714D58268E0
:1061E00053070122002B08DB43688B434360A06DFB
:1061F000130298431043A06506E0A06D20231843C6
:10620000A065E06D1043E065A069002801D1206819
:1062100001600020F8BD000070B504462168002030
:106220008968490721D425464035297D01291CD09C
:1062300001212975E169012904D02046FEF7A2F861
:10624000002811D1A16D0A4A1140FF2201321143E9
:10625000A1650021E165297522681C211160216872
:106260008A6804231A438A6070BD022070BD000052
:10627000FEF1FFFF70B5054604464035287D012834
:1062800007D001262E752046FEF710F8002802D010
:106290000CE0022070BD2046FEF744F8002805D12E
:1062A000A16DFF22013291433143A165002129757F
:1062B00070BD00000248416802229143416070476E
:1062C0000058014070B5002402462032517902295D
:1062D00003D00421C16301243CE001680B680E2552
:1062E000AB430B6001680B685B085B000B601A4BEB
:1062F0000168994201D1012121E0174B14339942E1
:1063000001D110211BE0144B2833994201D189158A
:1063100015E0114B3C33994201D189140FE00E4B2B
:106320005033994202D10121090408E00A4B643339
:10633000994202D10121090501E001210906064B1C
:10634000083B59600121517100211171816B0029B5
:1063500000D08847204670BD0800024070B5044652
:1063600000F078F90546601C00D0641C00F072F95A
:10637000401BA042FAD370BDF0B5002362E00124B7
:106380009C4022460A405CD006685F000325BD4061
:106390002E43AC460660DD08AD002D182E6AAE46D1
:1063A0005D07EF0E0F25BD40AE4375462E62866831
:1063B0006546AE4386604568A5434560C46865464A
:1063C000AC43C4609D08214CAD002D19AF689C07FB
:1063D000260F0F24B440A4463C4005273F07B8428F
:1063E00001D1002719E01A4FB84201D1012714E06A
:1063F000184FB84201D102270FE0174FB84201D120
:1064000003270AE0154FB84201D1042705E0144FD5
:10641000B84201D1052700E00627B740A74210D1B6
:10642000AE686446A643AE600E4C25689543256071
:10643000656895436560A5689543A560E5689543E3
:10644000E5605B1C0A46DA4099D1F0BD00000140CE
:106450000004005000080050000C005000100050D4
:10646000001C00500004014010B50B49FF2301330C
:106470000A68802805D0102805D0984206D110203F
:1064800002E0042000E0082002430A6004225102D6
:10649000024800F0C9FE10BD04000020F8000020F2
:1064A00010B504494A69024202D04861FFF7DCFF97
:1064B00010BD000000040140F8B500230124A7E04E
:1064C00027469F403A4070D04D68022D01D0122DD2
:1064D00014D1DD08AD002D1800952D6A5E07AC467D
:1064E000F50E0F26AE46AE406546B543AC460E6986
:1064F0007546AE4065462E43009D2E624D68012DC7
:1065000005D0022D03D0112D01D0122D16D1856892
:106510000326AC465D00AE46AE406546B543AC468C
:10652000CE687546AE4065462E43866046680D7956
:10653000BE43ED06ED0F9D403543456006685F00A4
:106540000325BD40AE46AE430D79B446AE07B60F47
:10655000BE4065462E430660C6687546AE438D68EC
:10656000BD403543C5604D68ED0050D52B4D6E6B79
:1065700026436E639E082A4DB6007519AC46AD6879
:106580009E07360F0F27B740BD4305273F07B84288
:1065900001D100271AE0234FB84201D1012715E0AD
:1065A000214FB84202D1022710E030E01F4FB8421D
:1065B00001D103270AE01E4FB84201D1042705E0AC
:1065C0001C4FB84201D1052700E00627B7402F43F2
:1065D0006546AF60184D2E684F689643FF0300D59F
:1065E00016432E606E684F689643BF0300D516436E
:1065F0006E60AE684F689643FF0200D51643AE60EA
:10660000EE684F689643BF0200D51643EE605B1CF0
:106610000A681546DD4000D052E7F8BD0010024080
:10662000000001400004005000080050000C005021
:1066300000100050001C0050000401400069084098
:1066400000D001207047002A01D08161704781622B
:1066500070470000014800687047000000000020FB
:1066600070B504000FD021681348086021681348F2
:10667000086003CC41602068083C21688860FFF70F
:10668000E9FF054608E0012070BDFFF7E3FF401B6E
:10669000302801D9032070BD2068C0680028F4D1DB
:1066A00020680269E1688A4201D0016101E0044981
:1066B0000160002070BD0000CCCC000055550000EA
:1066C000AAAA00000068024901600020704700008B
:1066D000AAAA000002480168491C01607047000036
:1066E0000000002010B50848002401684022114332
:1066F0000160204600F00AF8002801D0012401E0E2
:1067000000F01CF8204610BD0020024070B5054680
:1067100009487D210024C9000068FDF7E9FC01F06B
:106720009DFB002801D0012404E000222946501ED0
:1067300000F034F8204670BD1400002010B50C485D
:10674000416B012211434163816B02041143816358
:1067500000221146501F00F021F800221146901E21
:1067600000F01CF800221146501E00F017F810BD72
:1067700000100240C106C90E01208840014908608E
:106780007047000080E100E0C106C90E012088408A
:10679000014908607047000000E100E010B503F017
:1067A00075FB10BDBFF34F8F04490348C860BFF3AA
:1067B0004F8F00BFFDE700000400FA0500ED00E088
:1067C00002480168021511430160704700700040E3
:1067D0000248016842151143016070470070004093
:1067E0000248016810229143016070470070004028
:1067F00002494A6882434A607047000000700040C6
:106800000248016882151143016070470070004022
:106810000A4B1A689208920002431A6008480369FA
:10682000042213430361012906D040BF20BF20BFCB
:10683000016991430161704730BFF9E70070004082
:1068400000ED00E0F8B54E49074601250020ED03B4
:106850004A4B4B4A4031082F7BD00EDC012F48D0E9
:10686000022F60D0042F22D1CC680326B602344018
:1068700065D07F02BC424ED064E0102F77D0012655
:10688000032436042404202F09D0FF3F012F0ED10A
:10689000C968214053D07400A1423CD06BE00B6921
:1068A00009692140B14203D199052EE02846F8BD7F
:1068B00001256D04A94203D19907F8D53148F8BDE7
:1068C000A142FCD111688903F9D5116803200005A4
:1068D000014001200005091A09D0091A05D081429A
:1068E00001D12948F8BD2948F8BD2948F8BD2948F3
:1068F000F8BDCC68A407A40F0AD0022C0BD0012C41
:106900000ED0032CF4D1096989050029CEDBF8BD2E
:1069100000F0FEF9F8BD11684907FBD51846F8BD2F
:1069200000F006FAF8BDCC680C26344007D0082CDD
:10693000F1D0042CF4D00C2CE5D0F8BD09E000F027
:10694000D7F9FAE7012292029442E9D0B442DAD0B0
:10695000F3E7C968032424032140F0D001256D0327
:106960006C10A942D7D0A142DAD0E6E7FFE7916BDD
:106970004902E4D4E1E7B142D2D0DEE70024F400DA
:10698000001002408890000020A1070000093D008F
:1069900040420F0080841E00F8B504460078594D2F
:1069A000800672D5574E0027403EB06BC00004D41D
:1069B000B06BA9050843B063012753480168C905B6
:1069C00011D40168821511430160FFF743FE009066
:1069D00005E0FFF73FFE0099401A642837D84A487F
:1069E0000068C005F5D532680321090560680A40D2
:1069F0000140914208D08103890F032904D13168F5
:106A0000890301D50120F8BD2A69032109040A4040
:106A100022D0084090421FD0207880061CD52869DB
:106A20002A6988430121C9040A432A612A698A43E1
:106A30002A612861C0050FD5FFF70CFE009008E021
:106A4000FFF708FE0099411A3048814201D903201E
:106A5000F8BD28698005F3D561688803800F032895
:106A600005D132680005824301400A43326028693B
:106A7000032261681204114008432861002F04D0EA
:106A8000B16B012000078143B1632078C00705D0B6
:106A9000E868A168800880000843E86020788007E3
:106AA00005D5E8680C218843E1680843E860207850
:106AB000400706D5E8680321890288432169084315
:106AC000E8602078000706D5E868032109038843B9
:106AD00061690843E8602088C00506D5E86803219D
:106AE00009048843A1690843E8602078000606D5B8
:106AF000E868032189048843E1690843E8600020CD
:106B0000F8BD0000401002400070004088130000F3
:106B1000F8B5054653480E460068C007C00FB0429E
:106B20000AD25048016849084900314301600068B1
:106B3000C007C00FB0426FD128784B4C800705D5F5
:106B4000E068F0218843A9680843E0602878C0071E
:106B500052D06868022817D0032818D0216801286D
:106B600018D08905002957DAE168890889000143AE
:106B7000E160FFF76FFD69680746022912D003291B
:106B80001CD0012926D033E021688903EAE7216877
:106B90008901E7E74907E5E7FFF75CFDC11B3348DB
:106BA000814223D8E0680007800F0228F4D123E057
:106BB000FFF750FDC11B2D48814217D8E068000740
:106BC000800F0328F4D117E0FFF744FDC11B2748CD
:106BD00081420BD8E0680007800F0128F4D10BE058
:106BE000FFF738FDC11B2148814201D90320F8BDC0
:106BF000E0680007800FF3D11A480168C907C90F80
:106C0000B1420BD90168490849003143016000686D
:106C1000C007C00FB04201D00120F8BD287840075E
:106C200006D5E068072109028843E9680843E06067
:106C30002878000707D5E0680721C9028843296939
:106C4000C9000843E06000F073F8E168084A0906EB
:106C5000090F515CC840074908600020FFF756FD46
:106C60000020F8BD00200240001002408813000000
:106C700052CC00081400002008B5154801688215A0
:106C800011430160C16889088900C1600168114A27
:106C90001140016001680122120411400091016855
:106CA0009200914301600021C16042680A4B1A4082
:106CB00005235B03D218426042681F231B029A43DC
:106CC0008314D2184260016105490448086008BD78
:106CD00000100240D4FFF6FEFF1FFF00D0FE3F0071
:106CE00014000020014800687047000014000020D4
:106CF000044805490068C968044A4905490F515CC0
:106D0000C840704714000020001002406BCC0008FF
:106D1000044805490068C968044A8904490F515C60
:106D2000C840704714000020001002406BCC0008DF
:106D300010B5184AD1680C20084004280BD0082848
:106D400010D00C2810D050680004410F0120C0035F
:106D5000491C884010BD1068C00601D50E4810BD02
:106D60000E4810BD0E4810BD88020E4B000F185C77
:106D70000902D368890F491CDB0301D5084A05E0E5
:106D80001268D20601D5044A00E0044A5043FDF7D8
:106D9000AFF910BD0010024000093D000024F400CE
:106DA00000127A0062CC0008F8B504460078F24D73
:106DB000C0074AD0E8680007800F022807D0E868BB
:106DC0000007800F032809D1E868C00306D52868AA
:106DD00080033AD56068002873D036E001206268ED
:106DE0000004824203D129680143296011E0052390
:106DF00001211B0489049A422A6802D10A432A60AD
:106E0000F1E782432A602A6802400092286888439A
:106E10002860606800280CD0FFF71CFC064604E0E0
:106E2000FFF718FC801B64287ED828688003F7D5FC
:106E30000BE0FFF70FFC064604E0FFF70BFC801B9E
:106E40006428F1D828688003F7D42078800741D5DA
:106E5000E8681F270007800F3F02012807D0E86875
:106E60000007800F032809D1E868C00306D428680A
:106E7000400717D5E068012823D113E0E068002817
:106E800017D029680922914301432960FFF7E2FBEB
:106E9000064604E0FFF7DEFB801B0228C4D8286802
:106EA0004007F7D568682169B8430902084368605C
:106EB00010E02868400840002860FFF7CBFB06463A
:106EC00005E090E0FFF7C6FB801B0228ACD82868DD
:106ED0004007F7D42078C00676D5E868A74E0007AB
:106EE000800F0BD0A06900285DD02868FF210131F8
:106EF00008432860FFF7AEFB074644E0286880059A
:106F000002D5A06900286ED0206A696831408842A5
:106F100012D903F043F90028AED16868216AB04362
:106F200008436860686800E0BBE00002217F000A57
:106F30000906084368600FE06968B143014369606E
:106F40006868217F0002000A090608436860206A19
:106F500003F024F900288FD1206A410B0120C003DF
:106F6000491C8840E96809060A0F8549895CC840C0
:106F7000844908600020FFF7C9FB25E0FFF76AFBA2
:106F8000C01B02288AD828688005F7D56868216A5E
:106F9000B043084368606868217F0002000A090660
:106FA0000843686010E02968FF20013081432960B0
:106FB000FFF750FB064604E0FFF74CFB801B02285E
:106FC0006FD828688005F7D420786F4E000723D546
:106FD00060690028306910D0012108433061FFF753
:106FE00039FB074605E0C5E0FFF734FBC01B02286C
:106FF00057D830698007F7D50EE04008400030616F
:10700000FFF728FB074604E0FFF724FBC01B02281C
:1070100047D830698007F7D42078400762D5A86B3D
:107020000027C00005D4A86B012109070843A86305
:10703000012756480168C90511D40168821511431A
:107040000160FFF707FB009005E0FFF703FB0099E5
:10705000401A642825D84D480068C005F5D5FF20A2
:10706000A2680130824203D131690143316111E0EC
:1070700001218902002A07D005231B029A4203D16D
:1070800032690A433261EFE7326982433261306923
:1070900088433061A06800280FD0FFF7DBFA00902A
:1070A00007E060E0FFF7D6FA0099411A38488142BC
:1070B00059D830698005F5D50DE0FFF7CBFA00907F
:1070C00006E0FFF7C7FA0099411A314881424AD8D1
:1070D00030698005F5D4002F04D0A96B012000078A
:1070E0008143A963606A002842D0E9680907890FD3
:1070F00003293FD0012636060228286805D0B04370
:107100002860FFF7A7FA04462FE0B0432860FFF796
:10711000A1FA074604E0FFF79DFAC01B022822D817
:1071200028688001F7D4E16AA06AEA680843216B05
:10713000FD231B049A4311430843E8602868304349
:107140002860FFF787FA044604E0FFF783FA001B84
:10715000022808D828688001F7D509E0FFF77AFAF5
:10716000001B022801D90320F8BD28688001F5D44E
:107170000020F8BD0120F8BD0010024000E0000032
:1071800052CC000814000020401002400070004063
:1071900088130000006889005030081800687047A4
:1071A000006889005030081802607047F8B505463D
:1071B000044620352878012819D0012028700220A3
:1071C00068702168CA20486221685320486220689C
:1071D00081680122920291438160206881681201D6
:1071E00091438160FFF736FA064600270FE0022040
:1071F000F8BDFFF72FFA811B7D20C000814206D920
:107200002168FF204862032068702F70F8BD206855
:10721000C0684007EDD52168FF20486201206870F2
:107220002F700020F8BD0000F7B505460446203554
:10723000287882B0012814D00120287002206870BC
:107240002168CA204862216853204862206880680B
:1072500000264005FF27002812DAFFF7FBF900900F
:107260000AE0022005B0F0BDFFF7F4F90099411AD9
:107270007D20C00081421CD82068C0684007F3D43C
:107280002068816801229202914381602068C16870
:1072900080221140204A8918C160FFF7DBF9009075
:1072A0000DE0FFF7D7F90099411A7D20C000814217
:1072B00005D920684762032068702E70D2E72068E5
:1072C000C0684007EDD5216803984861206881684F
:1072D000C908C900816020688168049A11438160EF
:1072E0000E480268012109050A43026082680A43C8
:1072F00082602068816801229203114381602068C6
:107300008168121111438160206847620120687012
:107310002E700020A6E700007FFBFFFF0004014065
:1073200002480122016811430160704704000020F7
:1073300010B504460068C068400509D52046FFF72F
:10734000EFFF2068C16880221140054A8918C1609A
:10735000012004490005486101202034607010BDFF
:107360007FFBFFFF0004014010B500680B4640683A
:10737000C021C94301400002000ECC04D870E40EC5
:107380005C708C06A40E0904490F9C701970002AC9
:107390000AD103F005F8D870587803F001F8587056
:1073A000987802F0FDFF9870002010BD30B50B46B4
:1073B0000168896A5960016809694904490C996042
:1073C000006804680F482146014088024D04800E81
:1073D00018706D0E49065D70490E99706102490E74
:1073E00040242140D970002A0AD102F0D9FF187038
:1073F000587802F0D5FF5870987802F0D1FF987055
:10740000002030BD7F7F7F0070B5040005D0254689
:1074100020356878002802D006E0012070BD0020E9
:107420002870204600F042F8022068702168CA20C7
:107430004862216853204862204602F0C4FFFF21C1
:107440000028206803D0416204206870E5E7826864
:10745000154B1A408260226890686368A6691843D9
:1074600023693343184390602268E0681061206804
:10747000026923891B041A4302612068C2688023C1
:107480009A43C2602068C26C92089200C264E269AA
:10749000606902432068C36C1A43C2642068416279
:1074A00001206870002070BDBFFF8FFF10B500681D
:1074B000084988420DD1084801690122920411430C
:1074C0000161002211460220FFF768F90220FFF750
:1074D0005BF910BD0028004040100240F8B5054699
:1074E0000446203528780B46012815D00120287045
:1074F000022068705878002A10D002F051FF987866
:1075000002F04EFFD8789E78000406435878197828
:1075100000024903084316E00220F8BDC10603D566
:10752000EF2108400A305870D87802F041FF060475
:10753000587802F03DFF00020643987802F038FFC9
:1075400006431878400306432168CA204862216830
:1075500053204862204602F036FF0027002811D150
:1075600010480640206846602068C1688022914328
:10757000C1602068806880060CD4204600F08CF83A
:10758000002807D02168FF204862042068702F700F
:107590000120F8BD2168FF204862012068702F702B
:1075A0000020F8BD3FFFFF00F8B506460446203630
:1075B00030780D4601280ED0012030700220707006
:1075C000206800278068002A07D040061AD528784E
:1075D00002F0E6FE17E00220F8BD400600D4EF708E
:1075E000287802F0E5FE0204687802F0E1FE00026D
:1075F0000243A87802F0DCFE0243E878000402436C
:1076000000920BE0EF702978A878090408436978A4
:10761000EA78090212041143084300902168CA2045
:107620004862216853204862204602F0CCFE0028C0
:107630001FD11849009808402168086020688168B7
:1076400001229204914381602969E8680843216816
:107650008A68104388602068C16880229143C160B5
:107660002068806880060CD4204600F015F80028B9
:1076700007D02168FF204862042070703770012015
:10768000F8BD2168FF20486201207070377000202B
:10769000F8BD00007F7F7F0070B504460068C168B8
:1076A000A0229143C160FEF7D5FF7D260546F60076
:1076B00006E0FEF7CFFF401BB04201D9032070BDAA
:1076C0002068C0688006F4D5002070BD70B5040045
:1076D00012D00221204640300546417420680168DE
:1076E000402291430160204600F04AF80021616584
:1076F00069742974084670BD012070BD70B504001E
:1077000006D025464035687C0026002802D005E0DA
:10771000012070BD2E74204600F066F802206874C7
:1077200020680168402291430160A1686068226975
:107730000843E16811430843616901220843A169D4
:10774000520211400843E1690843216A0843A16AD3
:10775000084321680860A0690421000C0840616AA0
:107760000843216848602168E06A08612068C169AF
:1077700092009143C161666501206874002070BD6C
:1077800010B5154C03680020144A032186B0A342AB
:107790000DD1536B9414A3435363E02202900490E1
:1077A0000191039105200092694600070FE00C4CFF
:1077B000A3420ED1936B2414A34393630722520375
:1077C0000191029003910490009269460548FEF7EA
:1077D00073FE06B010BD00000030014000100240F2
:1077E000003800400004005010B5154C036800201C
:1077F000144A032186B0A3420DD1536B9414234342
:107800005363E022029004900191039105200092BD
:10781000694600070FE00C4CA3420ED1936B241471
:107820002343936307225203019102900391049032
:10783000009269460548FEF73FFE06B010BD000005
:1078400000300140001002400038004000040050A9
:10785000FFB581B0044600266846068027464037BB
:10786000787C01287ED100293CD0002A3AD0387C8F
:10787000012877D001203874222078746665A163CE
:10788000A287E287A664E6642663A686E6860120D0
:10789000A368C003834205D1206803680125AD03B6
:1078A000AB4303600125A06A6D03A84207D123689A
:1078B0001868A8431860206803682B430360636856
:1078C000D81FFD3802D1A06800280ED020680168BA
:1078D000490603D40168402211430160E068002892
:1078E0001DD032E0012005B0F0BD3E74049813466F
:1078F00000900A46204600F03DF9F4E700220121FD
:107900002046049B03F03CFA002834D12068C1686B
:10791000A06B421CA2630170E08F401EE087E08FE5
:107920000128EBD814E0002201212046049B03F03B
:1079300027FA00281FD12068C068A16B0880A06BBF
:10794000801CA063E08F401EE087E08F0128EAD80A
:10795000A06AA84205D120680168012212031143E0
:10796000016000E05CE0002201212046049B03F05E
:1079700007FA002801D00320B5E7E0680028206856
:1079800018D0C068A16B0880A06B801CA063E08F3A
:10799000401EE087A06AA84217D10022012120469C
:1079A000049B03F0EDF900280AD0606D0221084322
:1079B0006065E0E7C168A06B421CA2630170E6E766
:1079C0002068C0686946088008886168C81FFD385B
:1079D0000CD10121A068C903884202D04911884214
:1079E00004D12068026840218A4302600120787433
:1079F000A06AA84211D120688168C943C9060CD485
:107A0000616D0222114361650168A943016020682C
:107A10000168294301603E7464E73E74002062E718
:107A2000022060E7FFB5054604464035687C81B01A
:107A3000012872D100293CD0002A3AD0287C0128A4
:107A40006BD00120287412206874002666652163BB
:107A5000A286E286E664A664A663A687E687012777
:107A6000A06A7F03B84207D120680168B94301606A
:107A700020680168394301600121A068C903884278
:107A800005D120680168012292031143016020683A
:107A90000168490603D40168402211430160E0688F
:107AA0000028606808D0002820D0E08E01281DD072
:107AB00026E0012005B0F0BD002802D0E08E0128AC
:107AC00008D1206B411C216321680078C860E08EDA
:107AD000401EE086E08E002820D0002202212046B1
:107AE000049B03F04DF9002815D1EAE7206B2168CB
:107AF0000088C860206B801C2063E08E401EE086FA
:107B0000E08E00280AD0002202212046049B03F0C8
:107B100037F90028EAD00320CCE729E0A06AB84270
:107B200005D1216808680122120310430860002271
:107B300002212046049B03F023F92027002807D1C7
:107B4000012280212046049B03F01AF9002803D06B
:107B5000606D38436065DEE7A068002803D12068C7
:107B6000C16880680090012068742E740020A1E72D
:107B700002209FE7F8B5044600276846078026469E
:107B80004036707C012802D0707C22287ED10029EA
:107B90000CD0002A0AD0002B08D0307C012875D0E8
:107BA00001203074707C012802D003E00120F8BD70
:107BB000322070746765A263A387E3872163A3867D
:107BC000E386A764E7640125A06A6D03A84207D194
:107BD00020680168A94301602068016829430160A9
:107BE00020680168490603D40168402211430160FE
:107BF0000121FF20E268C90205308A42616866D12E
:107C0000002904D081420CD1E08E012809D1206BDB
:107C100021680088C860206B801C2063E08E401EB5
:107C2000E086E08E002843D1A06AA84246D12068B1
:107C3000016801221203114301603FE02068C0681F
:107C4000A16B0880A06B801CA063B0E00022022121
:107C50002046069B03F094F800287DD1206B216814
:107C60000088C860206B801C2063E08E401EE08688
:107C7000E08E002808D1A06AA84205D120680168DA
:107C80000122120311430160002200E0CCE0012137
:107C90002046069B03F074F800287FD12068C06856
:107CA000A16B0880A06B801CA063E08F401EE08762
:107CB000E08E0028CAD1606800287BD10022012113
:107CC0002046069B03F05CF8002867D1B6E7002940
:107CD00004D081420BD1E08E012808D1206B411CD9
:107CE000216321680078C860E08E401EE086E08E47
:107CF000002845D1A06AA84205D120680168012268
:107D0000120311430160002201212046069B03F06B
:107D100037F8002842D12068C068A16B087046E09F
:107D2000002202212046069B03F02AF8002835D1C4
:107D3000206B411C216321680078C860E08E401EE2
:107D4000E086E08E00280AD1A06AA84207D1206808
:107D500002680121090300E020E00A4302600022DA
:107D600001212046069B03F00BF8002816D120685D
:107D7000C268A06B411CA1630270E08F401EE087C7
:107D8000E08E0028CCD16068002813D100220121A8
:107D90002046069B02F0F4FF002802D00320F8BD25
:107DA00008E02068C168A06B421CA2630170E08FEC
:107DB000401EE087A06AA8420FD100220121204680
:107DC000069B02F0DDFF002802D0606D02210EE06C
:107DD0002068C06869460880088801228021204602
:107DE000069B02F0CDFF002804D0606D20210843DF
:107DF0006065D3E701207074A06AA84211D12068A1
:107E00008168C943C9060CD4616D022211436165C2
:107E10000168A94301602068016829430160377443
:107E2000C4E637740020BAE70220B8E70422044908
:107E30000428086902D09043086170471043FBE7AB
:107E400000E000E008B5044800690090FEF742FC3D
:107E500000F08CFB08BD000000E000E0094910B50F
:107E6000401E884201D9012010BD074C60610321EA
:107E7000081F02F00BF80020A061072020610020FD
:107E800010BD0000FFFFFF0000E000E010B5FFF7AD
:107E9000D9FF10BDF8B5064604462036307D0D46A4
:107EA00001280DD001203075022070750427002AAA
:107EB00008D0042A16D0082A2AD00C2A4DD137E03F
:107EC0000220F8BD206803F03CFA2068816908228E
:107ED0001143816120688169B943816120688169AA
:107EE000EA6812E0206803F044FA20688269012100
:107EF000C9020A438261206881690122920291438A
:107F0000816120688169EA6812021143816124E07D
:107F1000206803F047FA2068C26908210A43C26159
:107F20002068C169B943C1612068C169EA6812E08B
:107F3000206803F052FA2068C1690122D20211437D
:107F4000C1612068C269012189028A43C261206837
:107F5000C169EA6812021143C161012070750020F5
:107F60003075F8BD70B5040005D025462035687D14
:107F7000002802D006E0012070BD002028752046B0
:107F800000F00AF802206875211D206803F09EF9B0
:107F900001206875002070BD704710B50446006868
:107FA000012203F0C3F92068016801221143016036
:107FB000002010BD10B504460068002203F0B6F999
:107FC0002068016A054A114203D101684908490045
:107FD0000160012020346075002010BD11110000E7
:107FE000704770B5040019D0242120466030064641
:107FF0004172206801684908490001602068002535
:1080000005602068456020688560204600F0E8F83B
:10801000E5667572B5723572002070BD012070BDC5
:10802000704701466031487A897A084370470000FA
:10803000F8B502680446D06911680607360F07D103
:10804000830605D58B0603D5204603F02CFDF8BD2D
:1080500095682023002E65D0EE07F60FFF27213705
:108060000F4037435ED0C70706D0CF0504D50127A0
:108070001762E26E3A43E266820708D5EA0706D045
:10808000276802223A62E26E04273A43E266420718
:1080900008D5EA0706D0256804222A62E26E022586
:1080A0002A43E266020709D50A461A40324305D040
:1080B000236808221A62E36E1343E366E26E002A25
:1080C000C5D0800604D5880602D5204603F0EBFC17
:1080D000E06E000703D42068806840061CD5204667
:1080E00003F0D2FC20688168490611D582684021DE
:1080F0008A438260606E00280AD01D498163606EE9
:10810000FEF7E0F80028A2D0606E816B8847F8BDCA
:108110002046FFF785FFF8BD2046FFF781FF0020CE
:10812000E066F8BD2646C7026036002F0ADA6D0207
:1081300008D50120000510627372B3722046FFF764
:108140004FFFF8BD050605D50D0603D5204603F003
:1081500001FEF8BD4006FCD54806FAD52046146855
:1081600040218C431460737200F0FEF9F8BD0000EA
:1081700075BA000870B5040005D025466035687AE8
:10818000002802D006E0012070BD002028722046A1
:1081900000F060F8242068722068016849084900EE
:1081A0000160606A002802D0204603F0CDFB204623
:1081B00003F0B8FC0128E7D0206841680922D20208
:1081C00091434160206881682A2291438160206840
:1081D0000168012211430160204603F01BFC70BDC1
:1081E00010B50268164B0520164900079A420AD1BD
:1081F0004A6B01239B039A434A6303214902FEF71A
:10820000BBF81B200BE0104B9A420BD18A6B012369
:108210005B049A438A630C21FEF7AEF81C20FEF73C
:10822000A9FA10BD09488242FBD1886B01221205D0
:108230009043886308210648FEF79EF810BD0000B1
:10824000003801400010024000440040005000404F
:1082500000040050F0B50468244F05202449022290
:10826000012503230426000785B0BC4211D14C6BC5
:1082700057033C434C6359026C4626C448C46946C4
:10828000FEF71AF9002201211B20FEF787FA1B20B6
:1082900014E0184FBC4215D18C6B01277F043C437E
:1082A0008C630C216C4626C448C46946FEF704F969
:1082B000002201211C20FEF771FA1C20FEF764FA4F
:1082C00005B0F0BD0C488442FAD1886B0124240526
:1082D00020438863082000900620049003930192B5
:1082E00069460648FEF7E8F8EAE700000038014072
:1082F00000100240004400400050004000040050C4
:10830000F0B5034660339C7A202C44D100290BD071
:10831000002A09D0012584682D03AC4206D10669E4
:10832000002E03D1CE0701D00120F0BD1E7A012E10
:1083300031D001261E724165014640310A834A83CD
:10834000FF27AC4204D10269002A12D1134A0EE081
:108350007F22002C08D001252D07AC420AD10469E8
:10836000002C04D03F2202E00469002C01D08A8353
:1083700000E08F830021C16622229A72197201687F
:108380008A6832438A6000680168FF222132114303
:1083900001600020F0BD0220F0BD0000FF010000E0
:1083A000F0B5384B0168384F0024384A99422BD138
:1083B00051885B14194351800B0425D41346344D66
:1083C0001B784E0414D50A2B01D0394012E0CE049C
:1083D000F60CAB55491C5180C904C90CFF2900D9C2
:1083E000548051880123DB0319432A4B194035E09F
:1083F0000D2B25D0CE04F60CAB55491C5180C90479
:10840000C90CFF2900D9548001682348814216D144
:108410009088491408439080010410D41B491F4BD5
:10842000491C09780A291BD03840C504ED0C595560
:10843000401C9080C004C00C7F2800D99480F0BDFF
:10844000CE04F60CAB55491C5180C904C90CFF2958
:1084500000D95480518801239B0319435180D3E7ED
:10846000C504ED0C5955401C9080C004C00C7F28F9
:1084700000D9948090880121C90308430549084028
:108480009080F0BD00380140FFBF000018000020C0
:1084900074010020FFDF000000440040740200204F
:1084A000FFB5064604466036707A83B00D46202834
:1084B00058D1002D0CD00598002809D00120A168C2
:1084C0000003814207D12069002804D1E80702D0C7
:1084D000012007B0F0BD307A012843D0012030726E
:1084E0000020E06621207072FEF7B4F80190274664
:1084F0004037059838820598788218E0788A401EBF
:10850000788206980090002280212046019B03F08B
:1085100054FC002818D10120A1680003814202D137
:108520002069002812D02168287888626D1C788A1A
:108530000028E3D106980090002240212046019BAC
:1085400003F03BFC002808D00320C2E728882168FC
:10855000C005C00D8862AD1CE9E7202070720020C4
:108560003072B6E70220B4E77047000010B5FEF79E
:1085700071F809497D234A68DB00904202D9841AC8
:108580009C4202D2801A984204D30868401C0860BA
:10859000D018486010BD000008000020F8B514464F
:1085A0000F460546FDF768FAFDF77EF8234EA20058
:1085B000022D04D0012D16D0002D28D038E0204DFA
:1085C0003946287880004019401CFBF7D7FD2878F1
:1085D00000192870B07B002803D0002003F0E2FDD2
:1085E00026E00120FAE7174D394628788000401927
:1085F000401CFBF7C3FD287800192870F07B002889
:1086000003D0002003F07CFD12E00120FAE70E4DBC
:108610003946287880004019401CFBF7AFFD2878C8
:1086200000192870307C002805D0002003F022FDBE
:10863000FDF7FEF9F8BD0120F8E700002007002053
:1086400097150020481A0020F91E002010B50E4C86
:108650002069800002D50DA003F0FCFF20690121F4
:10866000C905084320610E480C490160052141609D
:108670000C498160C160FDF7F3FF002803D034216D
:1086800009A003F0E5FF10BD4010024049574447E0
:1086900020726573657421210D0A000000300040CE
:1086A000E8000020FF0F00002E2E5C486172647706
:1086B0006172655C697764672E630000F0B57BA129
:1086C00007C98FB009AB07C37BA207CA07C309203C
:1086D000FCF7C4F97B4803F0BDFF0CAB09AA7AA1F3
:1086E0007BA003F0B7FF884803F0B4FF874988A058
:1086F00003F0B0FF3F218DA003F0ACFF212192A039
:1087000003F0A8FF944995A003F0A4FF042197A0CB
:1087100003F0A0FF30219BA003F09CFF7D219EA0D1
:1087200003F098FF7821A0A003F094FF0521A2A0F8
:1087300003F090FFA649A7A003F08CFF2521ADA070
:1087400003F088FF7821B3A003F084FFFF212D31CF
:10875000B7A003F07FFF042184A003F07BFF30214A
:1087600088A003F077FF3321B7A003F073FF012146
:108770000903BBA003F06EFF03210903BFA003F0B0
:1087800069FF01218903C4A003F064FF0121C9032B
:10879000C9A003F05FFFCE49CEA003F05BFFD24932
:1087A000D2A003F057FF0521D6A003F053FFDA480B
:1087B00003F050FFD94CDAA0237CE27BA17B03F0CD
:1087C00049FFDD4DDDA0296A03F044FF617BE1A094
:1087D00003F040FFA179E4A003F03CFF6179E6A03B
:1087E00003F038FF6079FF2801D100206071A9886B
:1087F000E5A003F02FFFE948417BE9A003F02AFF41
:10880000E6488038818DECA003F024FF697EEFA05C
:1088100003F020FF002203A9F048FEF7C7FD002265
:1088200008A9EE48FEF7A0FD6846827B417B007BED
:108830006B4607C308A883784278C178E8A003F0A4
:1088400009FF217BE07A00900191D448A37A20307F
:10885000817D627AECA003F0FDFEB04FF4A0643796
:10886000397803F0F7FEF8A003F0F4FE0026FF24A9
:108870009134B8194178FCA003F0ECFE761CA642B6
:10888000F7DB29A003F0E6FEF94FFAA0397803F0F0
:10889000E1FEFEA003F0DEFE0026B8194178F2A04A
:1088A00003F0D8FE761CA642F7DBFFE14D61722093
:1088B000313920323032300031343A32373A3531C2
:1088C00000000000D8CC0008302E302E330000000D
:1088D000536F6674776172652056657273696F6E47
:1088E0003A202573200D0A44617465206F6620616B
:1088F00070706C69636174696F6E3A202025732013
:1089000025730D0A0000000090CC0008110E000035
:1089100054696D696E674C696D697452656164482C
:1089200054494D453A2025640D0A000054696D698B
:108930006E674C696D6974526561644D54494D456B
:108940003A2025640D0A00005357495054494D45BB
:108950003A2025640D0A000081510100414443542E
:10896000494D453A2025640D0A0000005472616E9D
:108970006665725265636F72644E4F3A2025640DCE
:108980000A0000005472616E6665725265636F7210
:10899000643A2025640D0A00564F4C544147453A2D
:1089A0002025640D0A0000004B455954494D45529D
:1089B0003A2025640D0A0000416C61726D53797391
:1089C00074656D54494D453A2025640D0A00000038
:1089D00009070000546573745265706F72745265B4
:1089E000636F7264696E674854696D653A202564E7
:1089F0000D0A0000546573745265706F727452658D
:108A0000636F7264696E674D54696D653A202564C1
:108A10000D0A00005265706F7274696E6754696D5B
:108A20006553746172743A2025640D0A00000000D9
:108A30005265706F7274696E6754696D6553746FB7
:108A4000703A2025640D0A005472616E6665725298
:108A500065636F726453756D3A2025640D0A0000DA
:108A60005375706572436172646E5F4164647265D0
:108A700073733A2025780D0A000000004E6F726D66
:108A8000616C436172646E5F416464726573733AD2
:108A90002025780D0A000000426C61636B4C6973FD
:108AA00074436172646E5F416464726573733A20EB
:108AB00025780D0A000000005265636F72645F4103
:108AC0006464726573733A2025780D0A0000000013
:108AD000FFEF0700464C4153485F536563746F7264
:108AE0003A2025780D0A000010600000426C6555A0
:108AF0005549445F616464726573732025780D0A7B
:108B000000000000424C455555494444454C4159EC
:108B10002025780D0A00000020CD00082007002045
:108B2000466C616720533A2564204E3A2564204202
:108B30003A25640D0A0000008C0500207265636F01
:108B400072645F616464726573733A202578200DE6
:108B50000A000000526573747269637465643A2098
:108B600025640D0A00000000566F6C746167653A59
:108B70002025640D0A000000495744475F4E756D7B
:108B80003A2025640D0A00005365744F66665469E7
:108B90006D653A2025640D0A00000000CC06002017
:108BA000424C45555549445F6E756D6265723A2079
:108BB00025640D0A00000000424C454F70656E743C
:108BC000696D653A2025640D0A0000006C617374BC
:108BD0006C6F673A2025640D0A000000F800002041
:108BE00054696D653A2032302564203A202564208E
:108BF0003A202564203A202564203A202564203A32
:108C0000202564200D0A00004C696D6974466C6172
:108C100067202564200D0A4C696D69742054696DC4
:108C2000652025642025642D25642025640D0A0017
:108C3000737570657263617264206E756D626572C2
:108C40003A25640D0A0000007375706572636172E5
:108C5000642E4964436172642E6361726449645F87
:108C600061727261793A000020253032780000008C
:108C7000350C00200A6E6F726D616C636172642046
:108C80006E756D6265723A25640D0A006E6F726DC5
:108C9000616C636172642E4964436172642E636126
:108CA000726449645F61727261793A0013A003F0E3
:108CB000D1FC134F13A0397803F0CCFC18A003F0BB
:108CC000C9FC0026B81941781E4803F0C3FC761C85
:108CD000A642F7DB09A003F0BDFC1BA003F0BAFC21
:108CE00000242819817C174803F0B4FC641C032C71
:108CF000F7D302A003F0AEFC0FB0F0BD0D0A0000E8
:108D0000E61000200A626C61636B6C6973746361C6
:108D10007264206E756D6265723A25640D0A0000FA
:108D2000626C61636B6C697374636172642E496415
:108D3000436172642E6361726449645F617272613F
:108D4000793A0000688C00080A4576656E745F61A8
:108D50007070446174652E566F6C746167653A0D6E
:108D60000A000000F8B5044601F05EF82000134D3B
:108D7000134E144C144F06D0012229463046FDF7FD
:108D800062FC002205E0002229463046FDF75BFC2C
:108D9000012221463046FDF756FC3846FDF7DEFA43
:108DA000002229463046FDF74EFC0022214630467F
:108DB000FDF749FC01F018F8F8BD000000040000C0
:108DC00000040050000800002C01000070B5264C83
:108DD00000250126617A002828D0002905D100202D
:108DE00000F048F8A088E0806672FCF70BFF207A5C
:108DF000002805D01D4A0C216C2003F0CBFB11E0AC
:108E000019481B4CE030C07F022802D3207800288C
:108E100008D0164A0C216E2003F0BCFB20780028F5
:108E200000D025700120FBF719FE70BD0029FCD091
:108E3000207F0028F9D003F083F90020FFF792FF8C
:108E4000267365720A482577E58055380446FCF795
:108E500047FF224607216F2003F09CFB0721204695
:108E6000FBF7A5F970BD00008C0500201407002059
:108E70000C070020F8B5044600F0D6FF2000134D83
:108E8000134E144C144F06D0002229463046FDF7ED
:108E9000DAFB012205E0012229463046FDF7D3FB2B
:108EA000002221463046FDF7CEFB3846FDF756FA44
:108EB000002229463046FDF7C6FB002221463046F7
:108EC000FDF7C1FB00F090FFF8BD000000040000BA
:108ED00000040050000800002C010000F8B5264DE9
:108EE0000020AA7F2549264E002A04D12C46203492
:108EF0002288002A15D008703068032804DB03207C
:108F0000306020A003F0A6FB00F0A6F800F058F8AF
:108F10001D4801687D22D20089180160FFF726FBF9
:108F2000F8BD08706420FDF719FA18490127088870
:108F30000204002A0CDAC204D20C22807A03104008
:108F400008800021AF77084602F0D2FF03F0E0F975
:108F5000A87F0128E4D06088401E81B2618004208F
:108F600030600BA003F076FB60880028D8D1208801
:108F70000028D5D1AF77F8BDAC0600200400002052
:108F800010000020530A0000000000201A000020FA
:108F9000544F2025780A000010B5FDF731FCFDF78D
:108FA0001FFCFDF715FCFDF70BFC044801680322CC
:108FB000D2029143C2148918016010BD00700040B4
:108FC00008B51D48FEF7F2F802F0CCF81B484168DE
:108FD000C943C90703D101680422114301604168F4
:108FE000C943890703D40168082211430160FF20A7
:108FF0000130FDF7FDFB1248C16A01221143C16235
:10900000C16A11400091C26A02210A43C262C06A69
:10901000084000900B48FDF781F80B48FEF76EFB07
:109020000A48FFF7A7F80A48FFF7A4F80948FFF72E
:10903000A1F802F01FFF08BDF800002000700040FA
:1090400000100240880000201C010020F4020020D3
:1090500064030020D4030020F0B585B02B48FDF751
:1090600047F82B48FEF7BDFF2A48FEF7BAFF2A480B
:10907000FEF7B7FF2948FEF729FB29488024446101
:109080008115416122492020096808622149096847
:10909000086221490968086203204002032500266E
:1090A0006A4661C205273F0769463846FDF704FA5C
:1090B0000C20009069463846FDF7FEF908206A4604
:1090C00061C269461748FDF7F7F91748C16A4908B0
:1090D0004900C162C16A02229143C162C16A04258A
:1090E000A943C162C16AA143C162FDF7E3F80F4819
:1090F000016829430160C11400220D48FEF794F86D
:1091000001210846FDF784FB05B0F0BD8800002072
:10911000F402002064030020D40300201C0100207E
:1091200000040140000400500010024000700040A4
:10913000F8000020F8B5474C0A2060730026464F1F
:1091400020180090617B4548405C00F0B0FB002592
:109150004248A573C01F415DC01F405D002200F062
:1091600078FB009800F06EFA3878002807D029467E
:109170003BA003F06FFAA17A3DA003F06BFAA17A4D
:10918000E07B81423ED9207C81423BD2881F00286F
:1091900038DDA279881D904234D2C8B2801DE072B9
:1091A000881F20733AA003F055FAA17941A003F07B
:1091B00051FAA17B2AA003F04DFA617B45A003F090
:1091C00049FAE17A47A003F045FA217B4FA003F06A
:1091D00041FAE17A207B00F0ABFB787800280CD0D4
:1091E000FF25F535009800F02DFAA17A52A003F082
:1091F00031FA2846FDF7B2F8F4E758A003F02AFA4E
:109200000120F8BD6D1CEDB2072DA1D3C8B2217CA1
:109210002546884207D9687B0B2815D0401C687307
:1092200055A003F017FAA87AE97B884207D2687B39
:10923000002809D0401E687353A003F00BFA761C77
:10924000F6B20B2E00D27DE753A003F003FA002004
:10925000F8BD00002E3800204B00002084CC000810
:109260002D3E20447269766572203D2025782000CD
:109270003B204C7063642E43616C69627261746957
:109280006F6E2E56616C7565203D2025782000009C
:109290002D3E204C7063642E43616C696272617470
:1092A000696F6E2E56616C7565203D202578200D06
:1092B0000A0000003B204C7063642E46756C6C7392
:1092C00063616C655F56616C7565203D2025782073
:1092D0000D0A00003B204761696E203D2025782063
:1092E0000D0A00002D3E204C7063642E43616C69B2
:1092F00062726174696F6E2E5468726573686F6C08
:10930000645F4D6178203D20257820003B204C7023
:1093100063642E43616C6962726174696F6E2E546E
:1093200068726573686F6C645F4D696E203D2025BF
:1093300078200D0A000000002D3E204C7063642E42
:1093400043616C6962726174696F6E2E56616C75EF
:109350006532203D202578200D0A000043616C69AC
:109360006272612044726976657220537563636529
:109370007373210D0A0000004761696E5F496E64D6
:1093800065782B2B0D0A00004761696E5F496E649A
:1093900065782D2D0D0A000043616C6962726120B1
:1093A000447269766572204572726F7220210D0ACF
:1093B00000000000F8B5002600F0FDF91C4D002467
:1093C0000A27E81900906C722146032000F09DFAEC
:1093D00018486F73807A00F06AFA01220F21072083
:1093E00000F037FA009800F02DF9134800780028B3
:1093F00007D0214611A003F02DF9A97A15A003F09A
:1094000029F9A87A002805D0641CE4B27F2CDAD3AD
:109410003046F8BD687A002804D017A003F01AF986
:109420000126F5E71CA003F015F90026F0E700007F
:109430002E38002084CC00084B0000202D3E205206
:109440006566666572656E6365203D202578200D32
:109450000A0000003B204C7063642E43616C69621B
:10946000726174696F6E2E56616C7565203D2025A2
:1094700078200D0A0000000043616C69627261206F
:109480005265666572656E636520537563636573C7
:1094900073210D0A0000000043616C696272612053
:1094A0005265666572656E6365204572726F7221E2
:1094B0000D0A000010B50548417A4174417B817462
:1094C000817BC17402A003F0C5F810BD2E380020C6
:1094D0002D3E2042616B636B75702053756363652D
:1094E0007373210D0A00000010B500F04FF900F071
:1094F0003BFA002000F06AF90CA003F0ABF800F092
:109500005AF9FFF757FF002809D0FFF713FE01288B
:1095100006D00CA003F09EF800F02CF8002010BD3F
:109520000EA003F097F8012010BD00005374617283
:10953000742043616C6962726174696F6E210D0AF7
:109540000000000043616C6962726174696F6E2093
:109550004572726F72210D0A0000000043616C6950
:1095600062726174696F6E205375636365737321F2
:109570000D0A000010B50548417C4172817C4173A1
:10958000C17C817302A003F065F810BD2E38002065
:109590002D3E20526573746F726520537563636549
:1095A0007373210D0A000000FEB5FCF7B8F9032023
:1095B00001F0A3FC01A8FCF78FF90090002001F056
:1095C0009CFC00980026134F012805D012A003F040
:1095D00041F8FE760098FEBD68460079C00712D0BB
:1095E00013A003F037F80024144D05E02819C178C2
:1095F00013A003F02FF8641CA8788000A042F5DCCB
:109600000AA003F027F80120F8760248E03006753A
:10961000E0E700008C0500202D3E204E6F204361C6
:109620007264204465746563746564210D0A0000EA
:109630003B20554944203D2000000000EC3700202D
:109640002025780070B5054601211C2001F048FC5A
:109650000421012001F044FC2421012001F040FC00
:10966000042000F0A9F90446002201211C2000F08A
:10967000A3FB0421012001F033FC284600F02CF864
:1096800000F099F8204670BD10B50446014612203E
:10969000FCF71AFB21780AA002F0DCFF0B48017AE4
:1096A000C90702D0C01D00F017F809A002F0D2FFD0
:1096B0000848017D491C017500F07DF810BD0000CF
:1096C000497271203D202578000000002E380020CE
:1096D0000D0A00006C06002038B5044669460D20CE
:1096E000FCF7F2FA684600786946800120700C2089
:1096F000FCF7EAFA6846007821788006800E0818A0
:109700002070012038BD000070B51D4C207AC006C5
:1097100001D5FFF7E9FE207A0025C007002818D000
:10972000E079A179821D8A4201D9E17200E0E272FA
:10973000801F002801DD207300E02573114E307D6D
:109740000A2804D9E17A207B00F0F2F83575FFF79A
:109750002BFFA07B0C490C4A095CD21F105C002235
:1097600000F077F8617A032000F0CFF80649607BBB
:10977000C91D085C00F09BF800F0ACF8257270BDC4
:109780002E3800206C0600207DCC000810B500F0BB
:10979000A1F82121012001F0A3FB2821012001F0E3
:1097A0009FFB0421032001F09BFB0A210B2001F009
:1097B00097FB012010BD10B50221012001F090FBA4
:1097C0002221012001F08CFB012010BD10B50128E1
:1097D00015D00021132001F083FB0021142001F09B
:1097E0007FFB0021152001F07BFB0021162001F0FA
:1097F00077FB8021332001F04FFB012010BD0122B7
:109800008021392000F0D8FA002202213C2000F00B
:10981000D3FA002207213D2000F0CEFA00220321D6
:109820003E2000F0C9FA0021382001F035FB01216B
:10983000132001F055FB0221142001F051FB0021FF
:10984000152001F04DFB1821162001F049FB86215F
:10985000D0E7F8B50C460546164669463720FCF7B2
:1098600007FA68460078360188280DD1012C00D906
:109870000124E407E40F6D07E0006D0F3018401974
:10988000C1B2022001F02CFB6846007889280CD177
:109890006807400F30182407C1B2240F022001F0DE
:1098A0001FFB2101272001F0F7FA0120F8BDC106B6
:1098B00010B5C90E042001F013FB012010BD10B536
:1098C000012805D01021012001F00AFB012010BD64
:1098D0003021F8E710B58021022001F0DDFA802167
:1098E000032001F0D9FA10BD10B5012806D00120DF
:1098F000FBF72AFF0020FFF7E2FF10BD0120FFF772
:10990000DEFF0020FBF720FF10BD10B50C46490616
:109910004007890E2022400F11400918052001F050
:10992000DFFAA106890E062001F0DAFA012010BD47
:1099300070B505460C46A94201D20D460446A9065B
:10994000890E0E2001F0CCFAA9090F2001F0C8FA07
:10995000A106890E102001F0C3FAA109112001F01F
:10996000BFFA012070BD000010B5124C0820207015
:109970000D2060700C21A17060710E2020710120FB
:10998000E070A220A0710620E0739C2020741821B2
:10999000072001F0A5FA6178082001F0A1FAA1786A
:1099A000092001F09DFA61790A2001F099FA01205D
:1099B00010BD00002E38002038B50546694612203B
:1099C000FCF782F9FF24012003F039F969461220DF
:1099D000FCF77AF968460078284201D0012038BDAA
:1099E000641E2406240EEED1002038BD10B51A4C9A
:1099F0002069800102D519A002F02CFE20694001E7
:109A000002D51EA002F026FE2069000102D51FA08B
:109A100002F020FE2069C00002D521A002F01AFE4B
:109A20002069800005D523A002F014FE25485D21A1
:109A300041702069400002D523A002F00BFE20698E
:109A4000002802DA24A002F005FE20690121C905E0
:109A50000843206110BD0000401002404F7074693F
:109A60006F6E73206279746573206C6F6164696EC8
:109A700067205265736574210D0A000050494E201D
:109A80005265736574210D0A00000000504F522F7B
:109A9000504452205265736574210D0A0000000085
:109AA000536F667477617265205265736574210D1A
:109AB0000A00000049574447205265736574210D20
:109AC0000A0000000C0700205757444720526573D6
:109AD0006574210D0A0000004C6F772D506F77657B
