:020000040800F2
:1000000020090020D50000088D1900087B16000883
:1000100000000000000000000000000000000000E0
:10002000000000000000000000000000A11A00080D
:100030000000000000000000D5190008A11C000805
:10004000E7000008E7000008E7000008E7000008F4
:10005000E7000008E7000008E7000008E7000008E4
:10006000E7000008E7000008E7000008E7000008D4
:10007000E7000008E700000800000000E7000008B3
:1000800000000000E7000008000000000000000081
:10009000E700000800000000E7000008E700000893
:1000A000E7000008E7000008E7000008E700000894
:1000B000E7000008E7000008E7000008E700000884
:1000C0000348854600F086F800480047CD24000824
:1000D000200900200448804704480047FEE7FEE767
:1000E000FEE7FEE7FEE7FEE70D1D0008C100000881
:1000F00030B50B46014600202022012409E00D46C0
:10010000D5409D4205D31D469540491B2546954047
:1001100040191546521E002DF1DC30BDF0B51FB45C
:100120000646002082B005464024019100901BE065
:10013000019922460F46304600F03AF8049A059B92
:10014000801A994110D310461946224600F020F833
:10015000361A8F410197224601200021009F00F0AE
:1001600017F838184D4100902046641E0028DFDC47
:10017000019B00982946324607B0F0BD0321001DBF
:10018000401E037812021A43491EF9D510467047E3
:1001900010B5202A04DB0146203A9140002010BD12
:1001A000914020239C1A0346E3401943904010BD20
:1001B00010B5202A04DB0846203AD040002110BDAB
:1001C0000B46D340D0402024A21A91400843194640
:1001D00010BD0000064C0125064E05E0E36807CC83
:1001E0002B430C3C98471034B442F7D3FFF76CFF15
:1001F0000C2500082C250008F7B5002416460546F6
:10020000570809E00198A1000818FFF7B7FF10216F
:10021000C84129680860641CA742F3D8F00704D0DD
:100220000199A2002868895A018028680068FEBDEB
:10023000FEB505460024900816460F4601900EE0D4
:10024000A000C0190090FFF799FF00BA010A0098BA
:100250000902C0780143286801600198641CA0422B
:10026000EED8B00721D0B007800F012803D1A1003C
:100270002A68795C1170022808D1A000C119487859
:10028000097800020843296840BA0880F0438007D3
:100290000BD1A000C11948780A78000210432A68DF
:1002A00040BA108088782968087028680068FEBD08
:1002B0007FB500250446009500F02AFB0A48009906
:1002C000001BC00901950294002908D103906946DA
:1002D00001A800F0D5F9002801D00120009000F01D
:1002E000B9FA009804B070BD000001081FB50024E1
:1002F00000F00EFB684600F0FFF900F0ABFA029840
:10030000C0430004000C00D10224204604B010BDFC
:1003100010B500F0FDFA04490248886100F09AFA2D
:1003200010BD0000002F030000200240F7B582B08E
:1003300016460446002500F0EBFA104F16E0A80020
:10034000039900900A582146022000F0C3FA0028C1
:1003500002D0032005B0F0BD039900982268085828
:10036000824201D00220F5E7241D6D1CB54201D266
:10037000BC42E4D900F06EFA0020EBE7FCFF000875
:1003800010B588B0044600F0C3FA00F081FA04A862
:1003900000F0B2F9002C14D0002001900120009050
:1003A000AA2168460173817F817307490698084333
:1003B0000290684600F0BCF9002800D0042008B084
:1003C00010BD0120E9E70000FFFF000070B5104DEF
:1003D00004460E46284600F07FF8002814D10D4947
:1003E0004861002C10D02004000C0DD00A48002ECB
:1003F000816802D0214389B202E0E24392B2114007
:10040000CA4312040A438260284600F065F870BDB2
:1004100050C30000080500200000F81F10B508496F
:1004200000224A6107494B684C1523434B604B68D7
:10043000082423434B60C009C001026010BD0000C6
:10044000080500200020024010B5214A00219069D3
:10045000C305204804D54169022319434161911520
:1004600093699B0505D543690124234343616302D6
:10047000194393695B0505D5436908242343436108
:10048000E301194393691B0505D5436904242343FC
:1004900043616302194393699B0405D543691024A2
:1004A000234343616302194393699B0304D5446961
:1004B00020231C43446119439369DB0305D5436939
:1004C000402423434361A0020143916110BD000019
:1004D000002002400805002070B5054600F002FB30
:1004E0000646184C0AE0681C08D0002D04D000F025
:1004F000F9FA801BA84201D9032070BDA069C0078A
:10050000F1D1A069800701D50220A061A069C005D2
:1005100011D4A06980050ED4A06940050BD4A06950
:10052000000508D4A069800405D4A069800302D422
:10053000A069C00303D5FFF787FF012070BD00202D
:1005400070BD000000200240F0B5044600201E23CC
:10055000012601E05B1E05D3DF06FF0E3546BD40D8
:100560000D42F7D0002A0ED0082A0AD0102A05D052
:10057000182A01D1072B06D30120F0BD082BFBD28E
:1005800001E0102BF8D22368596123689968182478
:10059000A14311439960F0BD70B5044600200223C9
:1005A000637723689E6801252E439E60236A012B92
:1005B0000ED0022B10D0032B11D104E0830026684B
:1005C000CB583360401C9042F8D32068006806E0A6
:1005D0002046FFF72DFE02E02046FFF70DFE65776F
:1005E00070BD000010B5040012D0607F002803D158
:1005F0002077204600F034F8022060772079002828
:1006000008D02046E268A168FFF79EFF002809D0C5
:10061000012010BD216811484861206881681822B6
:10062000914381606079002814D0206921680861B5
:10063000216888686022904362691043886021685D
:10064000886880229043A269104388600120607707
:10065000002010BD0020C043E8E70000B71DC10422
:10066000704770B5044600F03DFA0546601C00D0A6
:10067000641C00F037FA401BA042FAD370BD0000A2
:10068000F8B51A4E0546307C0F46012807D00120E8
:1006900030741748FFF720FF010002D021E002204C
:1006A000F8BD0020C04338606C6814E02046FFF7B6
:1006B000B5FE0F48FFF710FF01460E4842680823B9
:1006C0009A434260426843159A434260002901D030
:1006D0003C6006E08034A8686A68C0018018A042C7
:1006E000E4D8002030740846F8BD0000080500205A
:1006F00050C30000002002400F2101600B490A6A2C
:100700008260CA69D2B2AA2A02D0CC2A00D0BB2207
:100710000273CA697023120C1A408273CA691203E9
:10072000120F4273C969C90FC1737047002002409C
:10073000F8B5444E0546317C012001290DD0012138
:10074000317429780027C907002908D06968A8688A
:10075000FFF73CFE002872D101E00220F8BD2978A5
:10076000394C890717D5297B20682068FF22013280
:1007700010400143C8430004084300903348FFF78A
:10078000ABFE002805D17761009820602F48FFF765
:10079000A3FE002853D12978490720D5A87B102132
:1007A00003460B40202101404022104062689C46D5
:1007B000274B1A4063460B4303431343D8430004BB
:1007C000034322480093FFF787FE002805D1776195
:1007D000009860601D48FFF77FFE00282FD1297820
:1007E000090716D5687B6168194A613211400843D0
:1007F000C1430904084300901448FFF76DFE002828
:1008000005D17761009860601048FFF765FE002809
:1008100015D12978C90612D5E87BC5036068400464
:10082000400C0543E843000405430848FFF754FE25
:10083000002804D1776165600448FFF74DFE3774E6
:10084000F8BD0000080500200000F81F50C300009C
:100850008FFF000005484168022211434160416852
:100860000122114341600020704700000020024037
:1008700010B50548416801229204114341600348C4
:10088000FFF72AFE10BD00000020024050C3000008
:100890000B484168490711D5EFF3108172B64268E1
:1008A000D20703D0074AC260074AC260074A4261C2
:1008B000074A426181F31088002070470120704789
:1008C00000200240EFCDAB8905040302C8D9EAFB42
:1008D00027262524F8B50C4C1646207C0F46012807
:1008E00008D0012020740948FFF7F6FD00250028F4
:1008F00002D006E00220F8BD65613E600348FFF7C4
:10090000EBFD2574F8BD00000805002050C3000071
:1009100011484168C9070BD0EFF3108172B60F4A36
:10092000C2600F4AC26081F310884168C9070ED1C6
:10093000416889070DD5EFF3108172B6094A02614B
:10094000094A026181F310884068800701D50120BF
:10095000704700207047000000200240EFCDAB89B7
:1009600005040302BFAE9D8C16151413F8B50023C1
:100970000124A2E027469F403A4070D04D68022DE6
:1009800001D0122D14D1DD08AD002D1800952D6A6F
:100990005E07AC46F50E0F26AE46AE406546B54343
:1009A000AC460E697546AE4065462E43009D2E62EC
:1009B0004D68012D05D0022D03D0112D01D0122D2F
:1009C00016D185680326AC465D00AE46AE4065464E
:1009D000B543AC46CE687546AE4065462E4386604C
:1009E00046680D79BE43ED06ED0F9D4035434560E9
:1009F00006685F000325BD40AE46AE430D79B446A0
:100A0000AE07B60FBE4065462E430660C668754603
:100A1000AE438D68BD403543C5604D68ED004BD594
:100A2000294D6E6B26436E639E08284DB6007519DE
:100A3000AC46AD689E07360F0F27B740BD4305276C
:100A40003F07B84201D1002715E0214FB84201D13C
:100A5000012710E01F4FB84202D102270BE02BE024
:100A60001D4FB84201D1032705E01C4FB84201D108
:100A7000052700E00627B7402F436546AF60184DB5
:100A80002E684F689643FF0300D516432E606E68AC
:100A90004F689643BF0300D516436E60AE684F683B
:100AA0009643FF0200D51643AE60EE684F6896434A
:100AB000BF0200D51643EE605B1C0A681546DD4098
:100AC00000D057E7F8BD00000010024000000140D0
:100AD0000004005000080050000C0050001C0050A2
:100AE0000004014001480068704700001000002029
:100AF00002480168491C0160704700001000002096
:100B000010B50848002401684022114301602046C6
:100B100000F00AF8002801D0012401E000F01CF8E0
:100B2000204610BD0020024070B5054609487D21D1
:100B30000024C9000068FFF7DBFA00F03FFC002842
:100B400001D0012404E000222946501E00F010F8D4
:100B5000204670BD140000200448416B012211435F
:100B60004163816B020411438163704700100240AE
:100B700010B500F00DFF10BDF8B504460068614DDA
:100B8000810601D400057DD55E4E0027403EB06B46
:100B9000C00004D4B06B31040843B06301275A4845
:100BA0000168C90511D40168821511430160FFF77E
:100BB00099FF009005E0FFF795FF0099401A64281F
:100BC00044D851480068C005F5D5316803200005B8
:100BD000626801401040884205D10323A0681B05CC
:100BE0001840884208D09003800F032804D1306851
:100BF000800301D50120F8BD2869032109040840BC
:100C000029D00A40824202D02278920606D4A268F5
:100C10000A4082421FD0208800051CD528692A6915
:100C200088430121C9040A432A612A698A432A6147
:100C30002861C0050FD5FFF755FF009008E0FFF7CA
:100C400051FF0099411A3148814201D90320F8BD72
:100C500028698005F3D561688803800F032805D1D2
:100C600032680005824301400A433260286903224A
:100C700061681204114008432861002F06D0B16B4F
:100C8000012000E002E000078143B1632078C00743
:100C900005D0E868E168800880000843E8602078B3
:100CA000800705D5E8680C21884321690843E8607E
:100CB0002078400706D5E8680321890288436169E6
:100CC0000843E8602078000706D5E8680321090397
:100CD0008843A1690843E8602078400606D5E868A3
:100CE000012189068843216A0843E86020780006CC
:100CF00006D5E868032189048843E1690843E86070
:100D00000020F8BD40100240007000408813000031
:100D1000F8B50E4605007DD053480068C007C00FE7
:100D2000B0420AD250480168490849003143016085
:100D30000068C007C00FB04271D128784B4C8007C3
:100D400005D5E068F0218843A9680843E060287869
:100D5000C00752D06868022817D0032818D021682D
:100D6000012818D08905002959DAE1688908890025
:100D70000143E160FFF7B6FE69680746022912D019
:100D800003291CD0012926D033E021688903EAE732
:100D900021688901E7E74907E5E7FFF7A3FEC11BE3
:100DA0003348814223D8E0680007800F0228F4D13D
:100DB00023E0FFF797FEC11B2D48814217D8E0685A
:100DC0000007800F0328F4D117E0FFF78BFEC11B4B
:100DD000274881420BD8E0680007800F0128F4D132
:100DE0000BE0FFF77FFEC11B2148814201D90320A0
:100DF000F8BDE0680007800FF3D11B480168C90700
:100E0000C90FB1420DD90168490849003143016059
:100E1000006800E003E0C007C00FB04201D001202D
:100E2000F8BD2878400706D5E06807210902884305
:100E3000E9680843E0602878000707D5E0680721E3
:100E4000C90288432969C9000843E06000F036F808
:100E5000E168084A0906090F515CC8400649086064
:100E60000020FFF761FEF8BD0020024000100240A4
:100E700088130000EA2400081400002004480549F3
:100E80000068C968044A4905490F515CC840704769
:100E90001400002000100240032500080448054902
:100EA0000068C968044A8904490F515CC84070470A
:100EB00014000020001002400325000810B5184A55
:100EC000D1680C20084004280BD0082810D00C282A
:100ED00010D050680004410F0120C003491C884015
:100EE00010BD1068C00601D50E4810BD0E4810BDDB
:100EF0000E4810BD88020E4B000F185C0902D36823
:100F0000890F491CDB0301D5084A05E01268D206A7
:100F100001D5044A00E0044A5043FFF7E9F810BD48
:100F20000010024000093D000024F40000127A0085
:100F3000FA240008FEB505007ED0FE4CE7680C20C0
:100F4000E66807400120000406402878C00747D023
:100F5000082F05D00C2F0AD101200004864206D1AB
:100F6000206880033CD568680028E5D038E001207F
:100F700069680004814203D121680143216011E0C6
:100F8000052301221B0492049942216802D11143D6
:100F90002160F1E7814321602168014000912068D0
:100FA00090432060686800280DD0FFF79BFD0090FB
:100FB00005E0FFF797FD0099401A64287AD8206869
:100FC0008003F6D50CE0FFF78DFD009005E0FFF7FC
:100FD00089FD0099401A6428F0D820688003F6D46F
:100FE0002878800755D50923E868042F0DD00C2FE9
:100FF00001D1002E09D000283BD02168994301433C
:101000002160FFF76FFD064627E02168490701D5FB
:10101000002891D061681F22120291432A691202AE
:10102000114361602168994301432160FFF746FF46
:10103000E16809060A0F00E0BBE1BF49895CC840CE
:10104000BE4908600020FFF76FFD002872D120E044
:10105000FFF748FD801B0228B0D820684007F7D56D
:1010600060681F21090288432969090208436060FA
:101070000FE02068400840002060FFF733FD06467F
:1010800004E0FFF72FFD801B022897D82068400757
:10109000F7D42878C0065FD5002F0CD0E869002867
:1010A00049D02068FF21013108432060FFF71AFD75
:1010B00006462DE0E4E02068800502D5E8690028B6
:1010C000A7D06068072149038843696A08436060C4
:1010D0006068298C0002000A090608436060686A9B
:1010E000410B0120C003491C8840E16809060A0F32
:1010F0009149895CC840914908600020FFF714FDC0
:10110000002817D128E0FFF7EDFC801B0228A3D8A8
:1011100020688005F7D56068072149038843696A1C
:10112000084360606068298C0002000A09060843D1
:10113000606011E023E12168FF20013081432160DC
:10114000FFF7D0FC064604E0FFF7CCFC801B02282A
:101150009BD820688005F7D42878794E000724D5DD
:1011600068690028306910D0012108433061FFF719
:10117000B9FC009005E0FFF7B5FC0099401A022881
:101180007ED830698007F6D50FE040084000306116
:10119000FFF7A8FC009005E0FFF7A4FC0099401AB7
:1011A00002286DD830698007F6D42878400764D5C6
:1011B00000200290A06BC00006D4A06B012109079B
:1011C0000843A063012002905E480168C90511D45C
:1011D0000168821511430160FFF784FC009005E06F
:1011E000FFF780FC0099401A642849D855480068E8
:1011F000C005F5D5FF20AA680130824203D13169CC
:101200000143316111E001218902002A07D0052341
:101210001B029A4203D132690A433261EFE7326915
:1012200082433261306988433061A86800280ED05B
:10123000FFF758FC009006E0FFF754FC0099411AB4
:10124000414881421CD830698005F5D50DE0FFF793
:1012500049FC009006E0FFF745FC0099411A3A4826
:1012600081420DD830698005F5D40298002804D059
:10127000A16B012000078143A1632878800600E06C
:101280007CE02ED53148A9694314002916D0A26804
:1012900001210A43A260626B0A436263016A194337
:1012A0000162FFF71FFC064604E0FFF71BFC801BF2
:1012B000022863D8A0688007F7D512E0A168490822
:1012C0004900A160016A99430162FFF70BFC0646E1
:1012D00004E0FFF707FC801B02284FD8A0688007B6
:1012E000F7D4A86A002866D00C2F4DD00126360608
:1012F0000228206805D0B0432060FFF7F3FB0546C5
:101300003EE0B0432060FFF7EDFB074604E0FFF747
:10131000E9FBC01B022831D820688001F7D4296B73
:10132000E86AE2680843696BFD231B049A43114392
:1013300008430DE000100240EA24000814000020D9
:10134000401002400070004088130000000001407F
:10135000E060206830432060FFF7C4FB054604E0EE
:10136000FFF7C0FB401B022808D820688001F7D592
:1013700021E0FFF7B7FB401B022801D90320FEBD87
:1013800020688001F5D416E00128F8D0E06801213A
:101390000904EA6A014091420BD10F2189042A6BAA
:1013A0000140914205D1032189050840696B8842BB
:1013B00001D00120FEBD0020FEBD0000094910B58E
:1013C000401E884201D9012010BD074C60610321F5
:1013D000081F00F0DDFA0020A06107202061002036
:1013E00010BD0000FFFFFF0000E000E010B50400AA
:1013F00003D0606F002802D007E0012010BD00215B
:1014000070200155204600F027F8242060672068EE
:101410000168490849000160204600F037FD0128B5
:10142000ECD0606A002802D0204600F099FC2068C9
:1014300041680922D20291434160206881682A22D2
:1014400091438160206801680122114301602046B8
:1014500000F0ECFC10BD000000B50068104987B03A
:1014600088421AD10F48C16A01221143C162C16A80
:1014700011400591816B5204114381630C2000904F
:101480000220019000200290032003900420049089
:10149000052069460007FFF769FA07B000BD0000A4
:1014A0000044004000100240FFB50446806F85B044
:1014B00017460E46202875D1002E0AD0002F08D0DE
:1014C000A168C001814207D12069002804D1F0073A
:1014D00002D0012009B0F0BD204660300290007CAF
:1014E00001285FD00298012101740020E0672220CA
:1014F000A067FFF7F7FA2546403504902F836F83E6
:101500000121A0680903FF22884204D12369002B2E
:101510000CD1254A0AE07F23002809D001221207B6
:10152000904213D12269002A05D03F22AA8303E00A
:101530002769002FFAD0AB83AA8B0192884202D18F
:101540002069002804D03746002602E00022EDE79B
:101550000027D0B20390688B00281DD00898009017
:10156000002220212046049B00F0A4FD002801D089
:101570000320AFE72068002F406A07D00399084096
:1015800038707F1C688B401E6883E4E7019908402F
:101590003080B61CF6E705E02020A0670299002005
:1015A000087497E7022095E7FF010000FFB50446A5
:1015B000406F83B017460D4620285CD1002D0AD01D
:1015C000002F08D0A168C001814207D120690028FE
:1015D00004D1E80702D0012007B0F0BD20466030FA
:1015E0000290007C012846D002980121017400205D
:1015F000E06721206067FFF775FA264640360190C4
:10160000378277820120A1680003814202D12069DC
:10161000002802D02F46002511E000270FE000220D
:101620008021204600F046FD002815D1002F15D05E
:101630002168387888627F1C708A401E7082708AA8
:10164000019B002806980090E9D100224021204605
:1016500000F030FD002808D00320BDE7288821686D
:10166000C005C00D8862AD1CE6E7202060670299C6
:1016700000200874B0E70220AEE7FEE708B50E4888
:10168000026B81140A430263006B0E4A084000900B
:101690000B480A4901600121017182600822C26081
:1016A000417100220261426182610162FEF79AFF8C
:1016B000002800D0FEE708BD0010024000300240C4
:1016C0009C0000202110000010B50A480849016064
:1016D000E1214902416000218160C16001618161B5
:1016E000C1610C22016242614162FFF77FFE10BDC1
:1016F000004400401C00002008B500206946087026
:10170000FEF7F4FD304C314D08261027206030A044
:1017100000F0C2FD38A000F0BFFD41A000F0BCFD0C
:101720002068002801D048A000E051A000F0B4FDDE
:1017300059A000F0B1FD28688169314381612868B2
:10174000816939438161286806620023DB430122F5
:1017500069461E48FFF7A8FE68460078312805D084
:10176000322806D0332810D054A017E000F09AF9A0
:10177000CDE75BA000F090FD5E494868A060606026
:10178000096881F308888047C1E7206800280AD0EB
:101790000120FEF7F5FD002803D057A000F07CFDE6
:1017A000B5E75DA007E00020FEF7EAFD002801D0C4
:1017B00061A0F3E768A000F06FFD6FA000F06CFD82
:1017C000FFF756F8A3E70000000000201C000020EF
:1017D0000D0A3D3D3D3D3D3D3D3D3D3D3D204D6185
:1017E000696E204D656E75203D3D3D3D3D3D3D3D65
:1017F0003D3D3D0D0A0A0000446F776E6C6F6164D9
:1018000020696D61676520746F20466C6173682084
:101810002D2D2D2D2D2D2D20310D0A0A000000001B
:101820004578656375746520746865206170706CB7
:1018300069636174696F6E202D2D2D2D2D2D2D2046
:10184000320D0A0A0000000044697361626C652071
:101850007468652077726974652070726F7465634F
:1018600074696F6E202D2D20330D0A0A00000000D0
:10187000456E61626C652074686520777269746575
:101880002070726F74656374696F6E202D2D2D202A
:10189000330D0A0A000000003D3D3D3D3D3D3D3D0C
:1018A0003D3D3D3D3D3D3D3D3D3D3D3D3D3D3D3D68
:1018B0003D3D3D3D3D3D3D3D3D0D0A000D0A506C19
:1018C0006561736520496E707574206E756D626513
:1018D0007220312C2032206F7220330D0000000066
:1018E00053746172742070726F6772616D2E2E2E48
:1018F0000D0A0000004000084572726F723A554EA2
:101900002D70726F74656374696F6E206661696CA7
:1019100065642E2E2E0D0A00577269746520507270
:101920006F74656374696F6E2064697361626C655E
:10193000642E2E2E0D0A00004572726F723A70727C
:101940006F74656374696F6E206661696C65642E7F
:101950002E2E0D0A00000000577269746520507227
:101960006F74656374696F6E20656E61626C656427
:101970002E2E2E0D0A00000053797374656D2072AF
:101980006573746172742E2E2E0D0A00704700006C
:101990008307FF22DB0E9A408907090E9940002831
:1019A0000BDA0007000F0838830808489B00181856
:1019B000C36993430B43C3617047830804489B008A
:1019C0001B181868904308431860704700ED00E04A
:1019D00000E400E070470000F7B582B000240C601E
:1019E0000F460646012269462B48049BFFF75CFD23
:1019F000050020D168460078182820D006DC012890
:101A00000BD002280BD0042804D104E0412828D0B0
:101A1000612826D0012530700DE0802401E00124EA
:101A2000A4023070221DB11C1B48049BFFF73CFD33
:101A3000050018D000243C60284605B0F0BD012206
:101A400069461548049BFFF72FFD002803D168461F
:101A50000078182803D0684601250078DBE70224C7
:101A6000D9E70225D7E7F078B178FF2250408142CC
:101A70000ED13019017940790902401801902246AF
:101A8000311D0648FEF788FD014601988142D2D0FB
:101A900000240125CFE700001C0000209C0000204E
:101AA0007047000008B50020009013A000F0F4FB80
:101AB000684600F031FB002807D0052813D0042821
:101AC00015D0022815D015A00EE07D200001FEF7EC
:101AD000C8FD15A000F0E0FB1A491BA0009A00F019
:101AE000DBFB21A000E026A000F0D6FB08BD2CA067
:101AF000FAE732A0F8E7000057616974696E672061
:101B00002E2E2E2870726573732027612720746F24
:101B10002061626F7274290A0D0000000A0D46618F
:101B2000696C6564210A0D000A0A0D20446F776E06
:101B30006C6F616420436F6D706C65746564210D1A
:101B40000A000000C00000200A0A0D204E616D65E9
:101B50003A25730D0A53697A653A20256420427943
:101B60007465730D0A0000002D2D2D2D2D2D2D2DAA
:101B70002D2D2D2D2D2D2D2D2D2D2D0A000000006C
:101B80000A0A0D54686520696D6167652073697A7A
:101B900065203E206D656D6F7279210A0D00000091
:101BA0000A0A0D566572696669636174696F6E2011
:101BB0006661696C6564210A0D0000000D0A4162CE
:101BC0006F72746564210A0D0000000001B50648BB
:101BD000416FA02901D12021416764230122694678
:101BE0000148FFF7E3FC08BD1C000020F0B50546E6
:101BF00000242B7820462246302B2CD16B78782B72
:101C000001D0582B27D102241AE01E46413E052E52
:101C100006D91F46613F052F02D93137092F13D846
:101C20001F461201303F092F01D83B4604E0052E24
:101C300001D8373B00E0573BD218641C0B2C04D270
:101C40002B5D002BE1D103E000202B5D002B01D1A7
:101C500001200A60F0BD2B5D002B0ED06B2B01D054
:101C60004B2B03D1002C01D0920206E06D2B01D04A
:101C70004D2B05D1002C03D0120501200A6007E08E
:101C80001E46303E092E09D80A267243303A9A1869
:101C9000641C0B2CDED20128DDD1F0BD0020F0BD8C
:101CA00010B5FEF725FF10BD30B517489DB001688F
:101CB0000322D2029143C214891801600325500106
:101CC0000121019003910B901021A8040C9088042D
:101CD000009502240D900A9404916846FFF72AF9B2
:101CE0000F200E9000201090119012900F9501215E
:101CF0000EA8FFF70DF808201790139413A8FEF70D
:101D00003BFF1DB030BD000000700040104801686E
:101D1000821511430160C1680E4A1140C16001681B
:101D20000D4A1140016081684908490081600168DD
:101D30000122920491430160C168FD221204914383
:101D4000C160002101610549C0038860704700003F
:101D5000001002400C40FF88F6FFF6FE00ED00E0A8
:101D600010B5818CC90707D001684A6801235B045C
:101D70009A43836A1A434A60818C890707D50168B0
:101D80004A6801231B049A43C36A1A434A60818C40
:101D9000490707D501684A6801239B049A43036BEE
:101DA0001A434A60818C090707D501684A680123F4
:101DB000DB039A43436B1A434A60818CC90607D5FB
:101DC0000268916801231B039943836B1943916057
:101DD000818C890607D501688A6801235B039A43D1
:101DE000C36B1A438A60818C490612D503685A680E
:101DF00001210905046C8A4322435A60026C8A421D
:101E000007D10268516803235B059943436C19436A
:101E10005160818C090607D501684A680123DB04FB
:101E2000806C9A4302434A6010BD0000F8B500265A
:101E30000446C667FEF756FE054620680068124F46
:101E4000000709D501212B460022490520460097AD
:101E500000F030F900280DD12068006840070BD54C
:101E600001212B46002289052046009700F022F927
:101E7000002801D00320F8BD20206067A0676034EF
:101E800026740020F8BD0000FFFFFF01F8B50446EE
:101E90002669A268E76932436669102000253E433F
:101EA0002368324378491E68784F3E4016431E60CF
:101EB00023685A6803263603B243E66832435A6001
:101EC0002368A2698B4201D0266A32439E680B27A1
:101ED0003F02BE4316439E606D4E23686D4AB34277
:101EE0000CD1D2689207920F06D0012A38D0022A6C
:101EF00034D0032A20D11EE001201DE0664EB342FB
:101F00000AD1D2680C26324026D0042A28D0082ACA
:101F100024D00C2A10D10EE08B420DD1D6680322BA
:101F20009202164018D001229202B61A18D0B61AA0
:101F300014D0964200D10820564A0126403A574F05
:101F4000F6038B4236D100280CD002280DD004288D
:101F500012D008281FD11CE00020EDE70220EBE79B
:101F60000420E9E7FEF78AFF08E01068C00601D503
:101F7000384605E04A4803E0FEF7A0FF002873D08A
:101F8000626851005118814205D81103814202D381
:101F900003E03046F4E7012566E0010E0602500832
:101FA000002330185941FEF7B9F803210902411AFC
:101FB0003C4A55E0E169B14232D1030000F07CF9BE
:101FC00009070A0D06250606062B0600E3E7FEF7BD
:101FD00055FF1CE0FEF762FF19E010686168C0065B
:101FE00002D54808304A01E0304A48088018FEF718
:101FF0007FF880B201462E4A10399142CBD8511C4D
:1020000001400007400F08432CE0FEF757FF6168CE
:1020100040004A08EAE76168012248081204E5E73F
:10202000030000F049F909070A0D06260606062CEA
:102030000600B0E7FEF722FF1DE0FEF72FFF1AE0D3
:1020400010686168C00602D54808C01902E014484B
:102050004A081018FEF74CF880B20146144A1039AD
:10206000914298D82168C8600020206660662846A2
:10207000F8BDFEF723FF61684A088018EAE7616847
:1020800048088019E6E7000000480040F369FFEFC8
:1020900000380140401002400044004000093D006B
:1020A0000024F400FFFC0F0000127A000048E80151
:1020B000EFFF0000FFB581B017460E4604460A9DAB
:1020C00009E0681C07D0FEF70DFD0499401AA842EC
:1020D0000CD8002D0AD02068C1693046884318D03A
:1020E0000020B842EDD0002005B0F0BD20680168A6
:1020F000FF22A132914301602068816849084900AC
:10210000816020206067A067002060342074032075
:10211000EAE70120E5E70000F1B5002790B0594853
:102120003E463C4609970290A5E0002005460A90ED
:102130009DE07D22D2000DA95348FFF74DFC0028F9
:102140000CD0022878D00998002800D0761C052EE3
:1021500073D91820FFF73AFD182086E00D98002665
:1021600000280DD0022806D047490A9A8B7893425E
:102170000BD0152079E00620FFF728FD022476E039
:102180000620FFF723FD012571E0404B1B781A4321
:1021900014D08208091D0298FEF7C8F8002853D011
:1021A0001820FFF713FD1820FFF710FD04240A98EC
:1021B000401CC0B20A900120099058E0087900281C
:1021C0003CD00020324B091D02E01A54401C491C2F
:1021D0000A78002A01D04028F7D300221A5410466A
:1021E00003AB01E01A54401C491C0A78202A01D094
:1021F0001028F7D3002119540CA91846FFF7F6FC54
:10220000109824490068884206D91820FFF7DEFCA0
:102210001820FFF7DBFC05241A48FEF749F8109850
:102220000C9901600C981949C009401C08700620DF
:10223000FFF7CCFC43200FE011E015E00620FFF78C
:10224000C5FC01252F4612E00298803002900F480D
:102250000178491E01700620FFF7B8FCA7E7182097
:10226000FFF7B4FC182087E74320FFF7AFFC2846B0
:10227000204300D15DE73846204300D155E7204692
:1022800011B0F0BD00400008000100200C0000204B
:10229000C0000020013000000FB410B503A9044BAA
:1022A000044A029800F024F810BC08BC04B0184797
:1022B000BD2400081800002030B47446641E257840
:1022C000641CAB4200D21D46635D5B00E31830BC6A
:1022D000184702E008C8121F08C1002AFAD1704747
:1022E0007047002001E001C1121F002AFBD1704796
:1022F000FFB58DB00F460546002606E025280AD01A
:10230000109A0F9990476D1C761C28780028F5D1FB
:10231000304611B0F0BD00240121674A009400E06E
:1023200004436D1C2B780846203B98401042F7D19F
:1023300028782E2815D10420044368786D1C2A289B
:102340000AD101CF6D1C00900BE000990A22514385
:10235000303940186D1C0090287801463039092921
:10236000F3D92878692843D006DC0028D0D0632828
:102370000BD0642804D13BE073280FD075284CD0D3
:10238000109A0F999047761C94E038786946087245
:102390000020487202A80190012003E038680190F3
:1023A0000020C0433F1D61070CD5002400E0641CE1
:1023B00000998C420FDA8442F9DB0199095D00290A
:1023C000F5D108E0002400E0641C8442FCDB0199A4
:1023D000095D0029F8D1361907E0019801990078C4
:1023E000491C0191109A0F999047641EF5D261E043
:1023F0000A20019001CF002802DA40422D2102E09C
:10240000210504D52B216A461172012103E0E10761
:1024100001D02021F7E70C9104E00A20019001CFC0
:1024200000210C910BA90B9108E00199FDF760FECA
:102430000A460B993032491E0B910A700028F4D1DC
:102440000B9803A9081A20300190600701D5009865
:1024500001E0012000900199884203DD01460198C6
:10246000081A00E000200024009006E002A8109A5C
:10247000005D0F999047641C761C0C988442F5DB34
:1024800004E0109A30200F999047761C0099481E5E
:1024900000900029F5DC08E00B980B990078491CA6
:1024A0000B91109A0F999047761C0199481E019044
:1024B0000029F1DC6D1C28E7092801000249886227
:1024C000CA695206FCD570470044004010B5FEF7BB
:1024D00017FBFFF7E9FBFFF7F7F8FDF719FFFFF729
:1024E000CDF8FFF709F9002010BD00000000000042
:1024F00000000102030406070809030406080C1083
:102500001820300000000001020304002C25000800
:10251000000000201C000000D2220008482500080E
:102520001C00002004090000E22200080000000056
:10253000000000000000000000000000000000009B
:08254000000020000000000073
:04000005080000C12E
:00000001FF
